{"abi":[{"type":"constructor","inputs":[{"name":"_compoundManager","type":"address","internalType":"address payable"},{"name":"_cEthAddress","type":"address","internalType":"address"}],"stateMutability":"nonpayable"},{"type":"fallback","stateMutability":"payable"},{"type":"receive","stateMutability":"payable"},{"type":"function","name":"cEthAddress","inputs":[],"outputs":[{"name":"","type":"address","internalType":"address"}],"stateMutability":"view"},{"type":"function","name":"command","inputs":[{"name":"intent","type":"string","internalType":"string"}],"outputs":[],"stateMutability":"payable"},{"type":"function","name":"compoundManager","inputs":[],"outputs":[{"name":"","type":"address","internalType":"address"}],"stateMutability":"view"},{"type":"error","name":"InvalidCharacter","inputs":[]},{"type":"error","name":"InvalidSyntax","inputs":[]}],"bytecode":{"object":"0x60e0346100ef57601f61105138819003918201601f19168301916001600160401b038311848410176100f35780849260409485528339810103126100ef5780516001600160a01b038082169290918390036100ef5760200151908116918282036100ef5780156100aa5760805260a05260c052604051610f4990816101088239608051818181610289015281816106a90152610947015260a051816108db015260c051816102e50152f35b60405162461bcd60e51b815260206004820152601760248201527f496e76616c6964206d616e6167657220616464726573730000000000000000006044820152606490fd5b5f80fd5b634e487b7160e01b5f52604160045260245ffdfe608060408181526004918236101561001f575b505050361561001d57005b005b5f3560e01c90816328120241146108ff575080632ed58e151461089157635fcc45001461004c5780610012565b602091827ffffffffffffffffffffffffffffffffffffffffffffffffffffffffffffffffc3601126103a05767ffffffffffffffff9080358281116103a057366023820112156103a05780820135908382116103a057602491368382840101116103a057868180856100be5f956109f5565b956100cb8b5197886109b4565b8287520183860137830101526100e18151610ac3565b935f5b82518110156101da576100f78184610b12565b517fff00000000000000000000000000000000000000000000000000000000000000908181167f4100000000000000000000000000000000000000000000000000000000000000811015806101b0575b156101a457508960f891821c019060ff8211610179579060019392911b165b5f1a6101728289610b12565b53016100e4565b866011897f4e487b71000000000000000000000000000000000000000000000000000000005f52525ffd5b90506001929150610166565b507f5a00000000000000000000000000000000000000000000000000000000000000811115610147565b84888389878a6101e981610b50565b7f48c73f681176fc7b3f9693986fd7b14581e8d540519e27400e88b8713932be018103610613575061021d91929350610ca5565b80515f9182918291825b8281106104c3575b50505090155f146104a75750670de0b6b3a7640000025b80340361044d575f80918451868101907ff6326fb30000000000000000000000000000000000000000000000000000000082528881526102858161096b565b51917f00000000000000000000000000000000000000000000000000000000000000005af16102b2610a2f565b50156103f35781517f70a082310000000000000000000000000000000000000000000000000000000081523081860152937f000000000000000000000000000000000000000000000000000000000000000073ffffffffffffffffffffffffffffffffffffffff1684868481845afa9586156103e9575f966103b4575b508492915f604492865198899586947fa9059cbb00000000000000000000000000000000000000000000000000000000865233908601528401525af19081156103ab575061037957005b81813d83116103a4575b61038d81836109b4565b810103126103a05751801515036103a057005b5f80fd5b503d610383565b513d5f823e3d90fd5b9095508481819493943d83116103e2575b6103cf81836109b4565b810103126103a05751949091908461032f565b503d6103c5565b84513d5f823e3d90fd5b60649392600f9251937f08c379a00000000000000000000000000000000000000000000000000000000085528401528201527f4465706f736974206661696c65642e00000000000000000000000000000000006044820152fd5b5082606494939251937f08c379a00000000000000000000000000000000000000000000000000000000085528401528201527f45746865722073656e74206d69736d61746368207769746820616d6f756e742e6044820152fd5b601281106104b6575b50610246565b601203600a0a02856104b0565b6104cd8183610b12565b517fff0000000000000000000000000000000000000000000000000000000000000081167f3000000000000000000000000000000000000000000000000000000000000000811015806105e9575b1561057a57508596600a7fffffffffffffffffffffffffffffffffffffffffffffffffffffffffffffffd09260f89897981c9102010195610564575b6001905b01939293610227565b936001019360128511156105575793929361022f565b7f2e000000000000000000000000000000000000000000000000000000000000009150959194951490816105e0575b50156105b8576001809361055b565b8887517f312a9f56000000000000000000000000000000000000000000000000000000008152fd5b9050158a6105a9565b507f390000000000000000000000000000000000000000000000000000000000000081111561051b565b7f855511cc3694f64379908437d6d64458dc76d02482052bfb8a5b33a72c054c77036108695761064290610ca5565b945f9580515f915f905f5b838110610715575b50505050508251948501957ff14210a6000000000000000000000000000000000000000000000000000000008752828601528185526060850193858510908511176106eb57505052516106d8915f918291827f00000000000000000000000000000000000000000000000000000000000000005af16106d2610a2f565b50610a5e565b61001d5f80808047335af16106d2610a2f565b6041907f4e487b71000000000000000000000000000000000000000000000000000000005f52525ffd5b90919293996107248284610b12565b517fff0000000000000000000000000000000000000000000000000000000000000081167f30000000000000000000000000000000000000000000000000000000000000008110158061083f575b156107cc57508b9594939291600a7fffffffffffffffffffffffffffffffffffffffffffffffffffffffffffffffd09260f81c910201019a6107b9575b6001905b0161064d565b916001019160128311156107af57610655565b7f2e0000000000000000000000000000000000000000000000000000000000000091509b919b9594939295149081610836575b501561080e57600180946107b3565b8487517f312a9f56000000000000000000000000000000000000000000000000000000008152fd5b9050158b6107ff565b507f3900000000000000000000000000000000000000000000000000000000000000811115610772565b8583517f1e3382cb000000000000000000000000000000000000000000000000000000008152fd5b50346103a0575f7ffffffffffffffffffffffffffffffffffffffffffffffffffffffffffffffffc3601126103a0576020905173ffffffffffffffffffffffffffffffffffffffff7f0000000000000000000000000000000000000000000000000000000000000000168152f35b346103a0575f7ffffffffffffffffffffffffffffffffffffffffffffffffffffffffffffffffc3601126103a05760209073ffffffffffffffffffffffffffffffffffffffff7f0000000000000000000000000000000000000000000000000000000000000000168152f35b6040810190811067ffffffffffffffff82111761098757604052565b7f4e487b71000000000000000000000000000000000000000000000000000000005f52604160045260245ffd5b90601f7fffffffffffffffffffffffffffffffffffffffffffffffffffffffffffffffe0910116810190811067ffffffffffffffff82111761098757604052565b67ffffffffffffffff811161098757601f017fffffffffffffffffffffffffffffffffffffffffffffffffffffffffffffffe01660200190565b3d15610a59573d90610a40826109f5565b91610a4e60405193846109b4565b82523d5f602084013e565b606090565b15610a6557565b60646040517f08c379a000000000000000000000000000000000000000000000000000000000815260206004820152601260248201527f5769746864726177616c206661696c65642e00000000000000000000000000006044820152fd5b90610acd826109f5565b610ada60405191826109b4565b8281527fffffffffffffffffffffffffffffffffffffffffffffffffffffffffffffffe0610b0882946109f5565b0190602036910137565b908151811015610b23570160200190565b7f4e487b71000000000000000000000000000000000000000000000000000000005f52603260045260245ffd5b8051905f5b828110610b865760046040517f1e3382cb000000000000000000000000000000000000000000000000000000008152fd5b7fff000000000000000000000000000000000000000000000000000000000000007f200000000000000000000000000000000000000000000000000000000000000081610bd38486610b12565b511614610be35750600101610b55565b9091809350518211610c3357610bf882610ac3565b925f5b838110610c1057505050506020815191012090565b8083610c1e60019385610b12565b51165f1a610c2c8288610b12565b5301610bfb565b60646040517f08c379a000000000000000000000000000000000000000000000000000000000815260206004820152601360248201527f496e76616c696420736c6963652072616e6765000000000000000000000000006044820152fd5b8051821015610b235760209160051b010190565b604090815191610cb48361096b565b6001918284527f200000000000000000000000000000000000000000000000000000000000000091826020809601527fff0000000000000000000000000000000000000000000000000000000000000080931682515f865f5b838110610ed6575001917fffffffffffffffffffffffffffffffffffffffffffffffffffffffffffffffe0610d59610d4485610efb565b94610d51875196876109b4565b808652610efb565b01885f5b828110610eb5575050505f905f90885f5b85811115610e4f575050505050506003815103610e26578051851015610b23570151938401519184518303928311610df457610daa8493610ac3565b945f935b610dbb575b505050505090565b8551841015610e21578051848101809111610df457859483610dde879387610b12565b51165f1a610dec828a610b12565b530193610dae565b7f4e487b71000000000000000000000000000000000000000000000000000000005f52601160045260245ffd5b610db3565b600482517f1e3382cb000000000000000000000000000000000000000000000000000000008152fd5b8581148015610ea0575b610e66575b018990610d6e565b9293610e959150875194610e798661096b565b8552838c8601528a810194610e8e8289610c91565b5286610c91565b508880830192610e5e565b50828a610ead838c610b12565b511614610e59565b8651610ec08161096b565b5f81525f83820152828288010152018990610d5d565b8488610ee2838a610b12565b511614610ef2575b018790610d0d565b91810191610eea565b67ffffffffffffffff81116109875760051b6020019056fea2646970667358221220c24ac2d748dfe8262d0facc6033930ab212f0f3cadf96fa822b605b7d5f9454664736f6c63430008180033","linkReferences":{}},"methodIdentifiers":{"cEthAddress()":"2ed58e15","command(string)":"5fcc4500","compoundManager()":"28120241"},"id":73}