{"abi":[{"type":"constructor","inputs":[{"name":"_compoundManager","type":"address","internalType":"address payable"},{"name":"_cEthAddress","type":"address","internalType":"address"}],"stateMutability":"nonpayable"},{"type":"fallback","stateMutability":"payable"},{"type":"receive","stateMutability":"payable"},{"type":"function","name":"cEthAddress","inputs":[],"outputs":[{"name":"","type":"address","internalType":"address"}],"stateMutability":"view"},{"type":"function","name":"command","inputs":[{"name":"intent","type":"string","internalType":"string"}],"outputs":[],"stateMutability":"payable"},{"type":"function","name":"compoundManager","inputs":[],"outputs":[{"name":"","type":"address","internalType":"address"}],"stateMutability":"view"},{"type":"error","name":"InvalidCharacter","inputs":[]},{"type":"error","name":"InvalidSyntax","inputs":[]}],"bytecode":{"object":"0x60e0346100f457601f610ffa38819003918201601f19168301916001600160401b038311848410176100f85780849260409485528339810103126100f45780516001600160a01b03811691908290036100f457602001516001600160a01b038116918282036100f45780156100af5760805260a05260c052604051610eed908161010d8239608051818181610297015281816106b901526108f7015260a0518161088b015260c051816102dd0152f35b60405162461bcd60e51b815260206004820152601760248201527f496e76616c6964206d616e6167657220616464726573730000000000000000006044820152606490fd5b5f80fd5b634e487b7160e01b5f52604160045260245ffdfe6080806040526004361015610011575b005b5f3560e01c90816328120241146108af575080632ed58e151461084157635fcc45001461003a57005b60207ffffffffffffffffffffffffffffffffffffffffffffffffffffffffffffffffc3601126103b85760043567ffffffffffffffff81116103b857366023820112156103b857806004013567ffffffffffffffff81116103b85736602482840101116103b8576020818060246100b15f956109a5565b956100bf6040519788610964565b8287520183860137830101526100d58151610a73565b905f5b81518110156101eb576100eb8183610ac2565b517fff0000000000000000000000000000000000000000000000000000000000000081167f4100000000000000000000000000000000000000000000000000000000000000811015806101c1575b156101b7575060f81c6020019060ff821161018a577fff0000000000000000000000000000000000000000000000000000000000000060019260f81b165b5f1a6101838286610ac2565b53016100d8565b7f4e487b71000000000000000000000000000000000000000000000000000000005f52601160045260245ffd5b6001929150610177565b507f5a00000000000000000000000000000000000000000000000000000000000000811115610139565b826101f581610b00565b7f48c73f681176fc7b3f9693986fd7b14581e8d540519e27400e88b8713932be018103610629575061022690610c71565b80515f9182918291825b8281106104d9575b50505090155f146104bd5750670de0b6b3a7640000025b80340361045f575f809160405160208101907ff6326fb300000000000000000000000000000000000000000000000000000000825260048152610293602482610964565b51917f00000000000000000000000000000000000000000000000000000000000000005af16102c06109df565b50156104015773ffffffffffffffffffffffffffffffffffffffff7f0000000000000000000000000000000000000000000000000000000000000000166040517f70a08231000000000000000000000000000000000000000000000000000000008152306004820152602081602481855afa9081156103c4575f916103cf575b505f91604460209260405194859384927fa9059cbb00000000000000000000000000000000000000000000000000000000845233600485015260248401525af180156103c45761038c57005b6020813d6020116103bc575b816103a560209383610964565b810103126103b85751801515036103b857005b5f80fd5b3d9150610398565b6040513d5f823e3d90fd5b90506020813d6020116103f9575b816103ea60209383610964565b810103126103b857515f610340565b3d91506103dd565b60646040517f08c379a000000000000000000000000000000000000000000000000000000000815260206004820152600f60248201527f4465706f736974206661696c65642e00000000000000000000000000000000006044820152fd5b60646040517f08c379a000000000000000000000000000000000000000000000000000000000815260206004820152602060248201527f45746865722073656e74206d69736d61746368207769746820616d6f756e742e6044820152fd5b601281106104cc575b5061024f565b601203600a0a02816104c6565b6104e38183610ac2565b517fff0000000000000000000000000000000000000000000000000000000000000081167f3000000000000000000000000000000000000000000000000000000000000000811015806105ff575b1561059057508596600a7fffffffffffffffffffffffffffffffffffffffffffffffffffffffffffffffd09260f89897981c910201019561057a575b6001905b01939293610230565b9360010193601285111561056d57939293610238565b7f2e000000000000000000000000000000000000000000000000000000000000009150959194951490816105f6575b50156105ce5760018093610571565b7f312a9f56000000000000000000000000000000000000000000000000000000005f5260045ffd5b905015866105bf565b507f3900000000000000000000000000000000000000000000000000000000000000811115610531565b7f855511cc3694f64379908437d6d64458dc76d02482052bfb8a5b33a72c054c77036108195761065890610c71565b5f9080515f915f905f5b8381106106fb575b50505050505f806106e89260405160208101917ff14210a60000000000000000000000000000000000000000000000000000000083526024820152602481526106b4604482610964565b5190827f00000000000000000000000000000000000000000000000000000000000000005af16106e26109df565b50610a0e565b61000f5f80808047335af16106e26109df565b6107058183610ac2565b517fff0000000000000000000000000000000000000000000000000000000000000081167f3000000000000000000000000000000000000000000000000000000000000000811015806107ef575b156107a957508596600a7fffffffffffffffffffffffffffffffffffffffffffffffffffffffffffffffd09260f81c9102010195610796575b6001905b01610662565b9160010191601283111561078c5761066a565b7f2e0000000000000000000000000000000000000000000000000000000000000091509591951490816107e6575b50156105ce5760018094610790565b905015866107d7565b507f3900000000000000000000000000000000000000000000000000000000000000811115610753565b7f1e3382cb000000000000000000000000000000000000000000000000000000005f5260045ffd5b346103b8575f7ffffffffffffffffffffffffffffffffffffffffffffffffffffffffffffffffc3601126103b857602060405173ffffffffffffffffffffffffffffffffffffffff7f0000000000000000000000000000000000000000000000000000000000000000168152f35b346103b8575f7ffffffffffffffffffffffffffffffffffffffffffffffffffffffffffffffffc3601126103b85760209073ffffffffffffffffffffffffffffffffffffffff7f0000000000000000000000000000000000000000000000000000000000000000168152f35b6040810190811067ffffffffffffffff82111761093757604052565b7f4e487b71000000000000000000000000000000000000000000000000000000005f52604160045260245ffd5b90601f7fffffffffffffffffffffffffffffffffffffffffffffffffffffffffffffffe0910116810190811067ffffffffffffffff82111761093757604052565b67ffffffffffffffff811161093757601f017fffffffffffffffffffffffffffffffffffffffffffffffffffffffffffffffe01660200190565b3d15610a09573d906109f0826109a5565b916109fe6040519384610964565b82523d5f602084013e565b606090565b15610a1557565b60646040517f08c379a000000000000000000000000000000000000000000000000000000000815260206004820152601260248201527f5769746864726177616c206661696c65642e00000000000000000000000000006044820152fd5b90610a7d826109a5565b610a8a6040519182610964565b8281527fffffffffffffffffffffffffffffffffffffffffffffffffffffffffffffffe0610ab882946109a5565b0190602036910137565b908151811015610ad3570160200190565b7f4e487b71000000000000000000000000000000000000000000000000000000005f52603260045260245ffd5b908151905f5b828110610b35577f1e3382cb000000000000000000000000000000000000000000000000000000005f5260045ffd5b7f20000000000000000000000000000000000000000000000000000000000000007fff00000000000000000000000000000000000000000000000000000000000000610b818387610ac2565b511614610b9057600101610b06565b90915082518111610bff57610ba481610a73565b905f5b818110610bbc57505080516020909101209150565b807fff00000000000000000000000000000000000000000000000000000000000000610bea60019388610ac2565b51165f1a610bf88286610ac2565b5301610ba7565b60646040517f08c379a000000000000000000000000000000000000000000000000000000000815260206004820152601360248201527f496e76616c696420736c6963652072616e6765000000000000000000000000006044820152fd5b8051821015610ad35760209160051b010190565b9060408051610c808282610964565b600181527f2000000000000000000000000000000000000000000000000000000000000000602090910181905283515f805b828110610e585750600101917fffffffffffffffffffffffffffffffffffffffffffffffffffffffffffffffe0610d00610ceb85610e9f565b94610cf887519687610964565b808652610e9f565b015f5b818110610e365750505f905f905f5b84811115610daf575050505050600381510361081957805160011015610ad357015160208101518151810390811161018a57610d4d90610a73565b905f5b8251811015610da85781519080820180921161018a577fff00000000000000000000000000000000000000000000000000000000000000610d9360019388610ac2565b51165f1a610da18286610ac2565b5301610d50565b5090925050565b8481148015610e01575b610dc6575b600101610d12565b9192610df690875194610dd88661091b565b85528360208601526001810194610def8289610c5d565b5286610c5d565b506001820191610dbe565b50817fff00000000000000000000000000000000000000000000000000000000000000610e2e838c610ac2565b511614610db9565b6020908651610e448161091b565b5f81525f8382015282828801015201610d03565b837fff00000000000000000000000000000000000000000000000000000000000000610e84838a610ac2565b511614610e94575b600101610cb2565b600190910190610e8c565b67ffffffffffffffff81116109375760051b6020019056fea2646970667358221220210a2845870fea64122eb7115ca6c0a2c1d182567c6dcf80dd7cce932d666e3f64736f6c634300081c0033","linkReferences":{}},"methodIdentifiers":{"cEthAddress()":"2ed58e15","command(string)":"5fcc4500","compoundManager()":"28120241"},"id":23}