{"abi":[{"type":"constructor","inputs":[],"stateMutability":"payable"},{"type":"fallback","stateMutability":"payable"},{"type":"receive","stateMutability":"payable"},{"type":"function","name":"addresses","inputs":[{"name":"name","type":"string","internalType":"string"}],"outputs":[{"name":"","type":"address","internalType":"address"}],"stateMutability":"view"},{"type":"function","name":"cancelOrder","inputs":[{"name":"hash","type":"bytes32","internalType":"bytes32"}],"outputs":[],"stateMutability":"nonpayable"},{"type":"function","name":"checkUserOp","inputs":[{"name":"intent","type":"string","internalType":"string"},{"name":"userOp","type":"tuple","internalType":"struct IETH.PackedUserOperation","components":[{"name":"sender","type":"address","internalType":"address"},{"name":"nonce","type":"uint256","internalType":"uint256"},{"name":"initCode","type":"bytes","internalType":"bytes"},{"name":"callData","type":"bytes","internalType":"bytes"},{"name":"accountGasLimits","type":"bytes32","internalType":"bytes32"},{"name":"preVerificationGas","type":"uint256","internalType":"uint256"},{"name":"gasFees","type":"bytes32","internalType":"bytes32"},{"name":"paymasterAndData","type":"bytes","internalType":"bytes"},{"name":"signature","type":"bytes","internalType":"bytes"}]}],"outputs":[{"name":"intentMatched","type":"bool","internalType":"bool"}],"stateMutability":"view"},{"type":"function","name":"command","inputs":[{"name":"intents","type":"string[]","internalType":"string[]"}],"outputs":[],"stateMutability":"payable"},{"type":"function","name":"command","inputs":[{"name":"intent","type":"string","internalType":"string"}],"outputs":[],"stateMutability":"payable"},{"type":"function","name":"escrow","inputs":[{"name":"to","type":"string","internalType":"string"},{"name":"amount","type":"string","internalType":"string"},{"name":"token","type":"string","internalType":"string"},{"name":"time","type":"string","internalType":"string"},{"name":"unit","type":"string","internalType":"string"}],"outputs":[{"name":"","type":"bytes32","internalType":"bytes32"}],"stateMutability":"payable"},{"type":"function","name":"executeOrder","inputs":[{"name":"hash","type":"bytes32","internalType":"bytes32"}],"outputs":[],"stateMutability":"payable"},{"type":"function","name":"lock","inputs":[{"name":"to","type":"string","internalType":"string"},{"name":"amount","type":"string","internalType":"string"},{"name":"token","type":"string","internalType":"string"},{"name":"time","type":"string","internalType":"string"},{"name":"unit","type":"string","internalType":"string"}],"outputs":[{"name":"","type":"bytes32","internalType":"bytes32"}],"stateMutability":"payable"},{"type":"function","name":"names","inputs":[{"name":"addresses","type":"address","internalType":"address"}],"outputs":[{"name":"","type":"string","internalType":"string"}],"stateMutability":"view"},{"type":"function","name":"order","inputs":[{"name":"tokenIn","type":"string","internalType":"string"},{"name":"tokenOut","type":"string","internalType":"string"},{"name":"amountIn","type":"string","internalType":"string"},{"name":"amountOut","type":"string","internalType":"string"},{"name":"receiver","type":"string","internalType":"string"}],"outputs":[{"name":"hash","type":"bytes32","internalType":"bytes32"}],"stateMutability":"payable"},{"type":"function","name":"orderHashes","inputs":[{"name":"","type":"uint256","internalType":"uint256"}],"outputs":[{"name":"","type":"bytes32","internalType":"bytes32"}],"stateMutability":"view"},{"type":"function","name":"orders","inputs":[{"name":"orderHash","type":"bytes32","internalType":"bytes32"}],"outputs":[{"name":"tokenIn","type":"address","internalType":"address"},{"name":"tokenOut","type":"address","internalType":"address"},{"name":"amountIn","type":"uint256","internalType":"uint256"},{"name":"amountOut","type":"uint256","internalType":"uint256"},{"name":"maker","type":"address","internalType":"address"},{"name":"receiver","type":"address","internalType":"address"},{"name":"nonce","type":"uint48","internalType":"uint48"},{"name":"expiry","type":"uint48","internalType":"uint48"}],"stateMutability":"view"},{"type":"function","name":"pairs","inputs":[{"name":"token0","type":"address","internalType":"address"},{"name":"token1","type":"address","internalType":"address"}],"outputs":[{"name":"","type":"address","internalType":"address"}],"stateMutability":"view"},{"type":"function","name":"previewCommand","inputs":[{"name":"intent","type":"string","internalType":"string"}],"outputs":[{"name":"to","type":"address","internalType":"address"},{"name":"amount","type":"uint256","internalType":"uint256"},{"name":"minAmountOut","type":"uint256","internalType":"uint256"},{"name":"token","type":"address","internalType":"address"},{"name":"callData","type":"bytes","internalType":"bytes"},{"name":"executeCallData","type":"bytes","internalType":"bytes"}],"stateMutability":"view"},{"type":"function","name":"send","inputs":[{"name":"to","type":"string","internalType":"string"},{"name":"amount","type":"string","internalType":"string"},{"name":"token","type":"string","internalType":"string"}],"outputs":[],"stateMutability":"payable"},{"type":"function","name":"setName","inputs":[{"name":"token","type":"address","internalType":"address"},{"name":"name","type":"string","internalType":"string"}],"outputs":[],"stateMutability":"payable"},{"type":"function","name":"setPair","inputs":[{"name":"tokenA","type":"address","internalType":"address"},{"name":"tokenB","type":"address","internalType":"address"},{"name":"pair","type":"address","internalType":"address"}],"outputs":[],"stateMutability":"payable"},{"type":"function","name":"swap","inputs":[{"name":"amountIn","type":"string","internalType":"string"},{"name":"amountOutMin","type":"string","internalType":"string"},{"name":"tokenIn","type":"string","internalType":"string"},{"name":"tokenOut","type":"string","internalType":"string"},{"name":"receiver","type":"string","internalType":"string"}],"outputs":[],"stateMutability":"payable"},{"type":"function","name":"translateCommand","inputs":[{"name":"callData","type":"bytes","internalType":"bytes"}],"outputs":[{"name":"intent","type":"string","internalType":"string"}],"stateMutability":"pure"},{"type":"function","name":"translateExecute","inputs":[{"name":"callData","type":"bytes","internalType":"bytes"}],"outputs":[{"name":"intent","type":"string","internalType":"string"}],"stateMutability":"view"},{"type":"function","name":"translateUserOp","inputs":[{"name":"userOp","type":"tuple","internalType":"struct IETH.PackedUserOperation","components":[{"name":"sender","type":"address","internalType":"address"},{"name":"nonce","type":"uint256","internalType":"uint256"},{"name":"initCode","type":"bytes","internalType":"bytes"},{"name":"callData","type":"bytes","internalType":"bytes"},{"name":"accountGasLimits","type":"bytes32","internalType":"bytes32"},{"name":"preVerificationGas","type":"uint256","internalType":"uint256"},{"name":"gasFees","type":"bytes32","internalType":"bytes32"},{"name":"paymasterAndData","type":"bytes","internalType":"bytes"},{"name":"signature","type":"bytes","internalType":"bytes"}]}],"outputs":[{"name":"intent","type":"string","internalType":"string"}],"stateMutability":"view"},{"type":"function","name":"whatIsTheAddressOf","inputs":[{"name":"name","type":"string","internalType":"string"}],"outputs":[{"name":"owner","type":"address","internalType":"address"},{"name":"receiver","type":"address","internalType":"address"},{"name":"node","type":"bytes32","internalType":"bytes32"}],"stateMutability":"view"},{"type":"function","name":"whatIsTheNameOf","inputs":[{"name":"user","type":"address","internalType":"address"}],"outputs":[{"name":"","type":"string","internalType":"string"}],"stateMutability":"view"},{"type":"event","name":"NameSet","inputs":[{"name":"token","type":"address","indexed":false,"internalType":"address"},{"name":"name","type":"string","indexed":false,"internalType":"string"}],"anonymous":false},{"type":"event","name":"PairSet","inputs":[{"name":"token0","type":"address","indexed":false,"internalType":"address"},{"name":"token1","type":"address","indexed":false,"internalType":"address"},{"name":"pair","type":"address","indexed":false,"internalType":"address"}],"anonymous":false},{"type":"error","name":"InsufficientSwap","inputs":[]},{"type":"error","name":"InvalidCharacter","inputs":[]},{"type":"error","name":"InvalidReceiver","inputs":[]},{"type":"error","name":"InvalidSelector","inputs":[]},{"type":"error","name":"InvalidSwap","inputs":[]},{"type":"error","name":"InvalidSyntax","inputs":[]},{"type":"error","name":"OrderExpired","inputs":[]},{"type":"error","name":"Overflow","inputs":[]},{"type":"error","name":"Reentrancy","inputs":[]},{"type":"error","name":"Unauthorized","inputs":[]}],"bytecode":{"object":"0x60806040525f5b620000106200010d565b518114620000fd57620000226200010d565b9062000034600192838301906200019e565b515f929060f890811c825b62000053575b505050600291500162000006565b6200006884620000626200010d565b6200019e565b51821c9460ff9586821614620000f65760049586549668010000000000000000881015620000e357858801808255881015620000d05791859697869260ff945f5260205f208260051c01918783549160031b169187831b921b1916179055011694936200003f565b603290634e487b7160e01b5f525260245ffd5b604190634e487b7160e01b5f525260245ffd5b5062000045565b604051615cd69081620001c58239f35b60405190608082016001600160401b038111838210176200018a576040908152604483527f2d00020101000a010700016101620163016401650166016701680169016a016b60208401527f016c016d016e016f0170017101720173017401750176017701780179017a060090830152621a010560e81b6060830152565b634e487b7160e01b5f52604160045260245ffd5b908151811015620001b0570160200190565b634e487b7160e01b5f52603260045260245ffdfe60406080815260049081361015610182575b36156101655781359160243590609a3560601c925f8513158061015b575b61013557505061004460ae3560601c83614cb7565b92813303610131576084355f1a1561010c5750508115610105575f835b73c02aaa39b223fe8d0a0e5c4f27ead9083c756cc2908238818084865af150336014526034526fa9059cbb0000000000000000000000008252604460108338935af1505f6034525b6085355f1a6100b457005b6100fc926100c792156100fe5750611940565b632e1a7d4d5f52806020525f386024601c8373c02aaa39b223fe8d0a0e5c4f27ead9083c756cc25af15060c23560601c613296565b005b9050611940565b5f81610061565b61012591841561012a5785915b60863560601c9061322f565b6100a9565b8391610119565b3838fd5b517f11157667000000000000000000000000000000000000000000000000000000008152fd5b505f83131561002f565b73c02aaa39b223fe8d0a0e5c4f27ead9083c756cc2330361013157005b5f3560e01c806304659197146110d1578063049b76c414610f3a5780631db5129714610f225780633121db1c14610cd057806352a13e8814610bf45780635615264d14610b8f578063579a8c4c14610a995780635a274d62146108715780635cf3d346146108385780635fcc4500146108045780636662c9e3146107ef57806369454b86146107a45780637489ec231461065b5780637bb41012146105785780639c3f1e90146104ef578063a35e65111461048c578063bdfe7d4714610429578063bfe68676146103a3578063c47d04e21461034a578063d315e54f14610332578063df69558c146102fa578063f12a64eb146102a25763fdbfc0a6036100115760209061029b610292366112c5565b93929092613a89565b9051908152f35b50346102f65760206003193601126102f65781359167ffffffffffffffff83116102f6576102d96102df916102f294369101611104565b90612ecb565b9051918291602083526020830190611153565b0390f35b5f80fd5b5090346102f65760206003193601126102f65735906005548210156102f65761032460209261148a565b91905490519160031b1c8152f35b60208261029b610341366112c5565b93929092612a58565b50346102f65760206003193601126102f65781359167ffffffffffffffff83116102f657610380610385916060943691016112a7565b61265c565b9183919351936001600160a01b038092168552166020840152820152f35b5090346102f65760206003193601126102f657803567ffffffffffffffff81116102f6576103e36103dd61041b936102f293369101611104565b90611f1a565b9491909288979497519889986001600160a01b038095168a5260208a015288015216606086015260c0608086015260c0850190611153565b9083820360a0850152611153565b50346102f65760206003193601126102f65781359167ffffffffffffffff83116102f65761047a60206104686001600160a01b039382963691016112a7565b81855193828580945193849201611132565b81015f81520301902054169051908152f35b50346102f6576003199181833601126102f65767ffffffffffffffff9281358481116102f6576104bf9036908401611104565b90916024359586116102f6576101209086360301126102f6576020946104e6930191611ec5565b90519015158152f35b5090346102f65760206003193601126102f6576101009181355f526002602052805f206001600160a01b03908181541693826001830154169360028301549060058560038601549486015416940154958151978852602088015286015260608501526080840152811660a083015265ffffffffffff8160a01c1660c083015260d01c60e0820152f35b5060606003193601126102f65761058d61134c565b90610596611362565b906044356001600160a01b03918282168092036102f657838573da000000000000d2885f108500803dfbaab2f2aa3303610131577f0664a178e530b983dd853e440d433bbd0e0bb8991c3e7293c2360df7dc79751d96606096828780941684831610610650575b50501693845f526003602052825f20911690815f52602052815f20837fffffffffffffffffffffffff000000000000000000000000000000000000000082541617905581519384526020840152820152a1005b9350905088806105fd565b5090346102f65760206003193601126102f65780359068929eee149b4bd21268923084541461079857308455825f526002602052805f209181519161069f83611178565b6001600160a01b0384818096541685528160018201541660208601526002810154968386019788526003820154606087015260058386840154169260808801938452015483811660a088015265ffffffffffff8160a01c1660c088015260d01c60e08701525f526002602052610734835f2060055f918281558260018201558260028201558260038201558260048201550155565b51163303610772575050511673eeeeeeeeeeeeeeeeeeeeeeeeeeeeeeeeeeeeeeee14610761575b50389055005b61076c905133613296565b5f61075b565b517f82b42900000000000000000000000000000000000000000000000000000000008152fd5b5063ab143c065f52601cfd5b50346102f657806003193601126102f6576020906107c061134c565b6107c8611362565b6001600160a01b038092165f526003845281835f2091165f528352815f2054169051908152f35b6100fc6107fb366112c5565b93929092611999565b8260206003193601126102f657803567ffffffffffffffff81116102f6576100fc9161083291369101611104565b9061169d565b50346102f65760206003193601126102f6576102f2906001600160a01b0361085e61134c565b165f5260016020526102df815f206113c9565b50346102f657602090816003193601126102f65761088d61134c565b928151907fbffbe61c0000000000000000000000000000000000000000000000000000000082526001600160a01b0380951681830152838260248173a58e81fe9b61b5c3fe2afd33cf304c454abfc7cb5afa918215610a8f575f92610a60575b508251947f0178b8bf000000000000000000000000000000000000000000000000000000008652828287015284866024816e0c2e074ec69a0dfb2997ba6c7d2e1e5afa958615610a56575f96610a1e575b505f9291602491855197889485937f691f3431000000000000000000000000000000000000000000000000000000008552840152165afa928315610a14575f93610997575b506102f29051928284938452830190611153565b9092503d805f833e6109a98183611232565b81019082818303126102f65780519067ffffffffffffffff82116102f657019080601f830112156102f6578151916109e083611255565b916109ed86519384611232565b8383528484830101116102f6576102f292610a0d91858085019101611132565b9290610983565b50513d5f823e3d90fd5b602491965091610a455f9493873d8911610a4f575b610a3d8183611232565b81019061167e565b969150919261093e565b503d610a33565b84513d5f823e3d90fd5b9091508381813d8311610a88575b610a788183611232565b810103126102f65751905f6108ed565b503d610a6e565b83513d5f823e3d90fd5b50346102f657600319916020833601126102f65780359267ffffffffffffffff84116102f6576101208483019185360301126102f6577fb61d27f60000000000000000000000000000000000000000000000000000000060646102f2950192610b028484611508565b9035917fffffffff0000000000000000000000000000000000000000000000000000000092839283821692808210610b7a575b505050905016145f14610b61576102df916102d991611508565b51918291602083526020830190611153565b610b7491610b6e91611508565b906114ec565b90610b4f565b849293500360031b1b161681905f8080610b35565b8260606003193601126102f65767ffffffffffffffff81358181116102f657610bbb90369084016112a7565b906024358181116102f657610bd390369085016112a7565b906044359081116102f6576100fc93610bee913691016112a7565b9161157b565b8260206003193601126102f657803567ffffffffffffffff918282116102f657366023830112156102f657818101359283116102f65760249260248301906005933660248360051b830101116102f6575f5b828103610c4f57005b82811015610ca557610c6a6108328883891b85010186611508565b5f198114610c7a57600101610c46565b866011867f4e487b71000000000000000000000000000000000000000000000000000000005f52525ffd5b866032867f4e487b71000000000000000000000000000000000000000000000000000000005f52525ffd5b5090816003193601126102f657610ce561134c565b67ffffffffffffffff926024358481116102f657610d069036908501611104565b9073da000000000000d2885f108500803dfbaab2f2aa330361013157610d39610d3e916001600160a01b03933691611271565b614084565b921692835f52600194602095808752835f20928551928311610ef65750610d658354611378565b601f8111610eb0575b5086601f8311600114610e2957917fa4cea56cd77acc2291276688ddfb9e3144c5dc056ada99eed3cd0460fbeda17597969593918180610e1897955f92610e1d575b505f1991921b9260031b1c19161790555b805185818451610dd48183858901611132565b81015f815203019020847fffffffffffffffffffffffff00000000000000000000000000000000000000008254161790558080519586958652850152830190611153565b0390a1005b87015191505f19610db0565b601f198392931690845f52885f20915f5b818110610e9b57509183917fa4cea56cd77acc2291276688ddfb9e3144c5dc056ada99eed3cd0460fbeda1759a99989694610e1898969410610e83575b5050811b019055610dc1565b8601515f1960f88460031b161c191690555f80610e77565b88830151845592850192918a01918a01610e3a565b835f52875f20601f840160051c810191898510610eec575b601f0160051c019082905b828110610ee1575050610d6e565b5f8155018290610ed3565b9091508190610ec8565b6041907f4e487b71000000000000000000000000000000000000000000000000000000005f525260245ffd5b60208261029b610f31366112c5565b93929092613357565b509060206003193601126102f657803568929eee149b4bd2126892308454146110c557308455815f526002602052805f20928151610f7781611178565b6001600160a01b0394858154168252856001820154169160208101928352600282015493858201948552600383015495606083019687526005898386015416946080850195865201549760a08401988a81168a5265ffffffffffff91828260a01c1660c087015260e086019160d01c82525f526002602052611018835f2060055f918281558260018201558260028201558260038201558260048201550155565b5116421161109f5750505173eeeeeeeeeeeeeeeeeeeeeeeeeeeeeeeeeeeeeeee938793929184168486820361108a57505061105591505133613296565b511690810361107857505134036102f6576110739134915116613296565b389055005b9192611073935116905191339061322f565b61109a935116915191339161322f565b611055565b517fc56873ba000000000000000000000000000000000000000000000000000000008152fd5b8263ab143c065f52601cfd5b50346102f65760206003193601126102f65781359167ffffffffffffffff83116102f657610b6e6102df916102f2943691015b9181601f840112156102f65782359167ffffffffffffffff83116102f657602083818601950101116102f657565b5f5b8381106111435750505f910152565b8181015183820152602001611134565b90601f19601f60209361117181518092818752878088019101611132565b0116010190565b610100810190811067ffffffffffffffff82111761119557604052565b7f4e487b71000000000000000000000000000000000000000000000000000000005f52604160045260245ffd5b6040810190811067ffffffffffffffff82111761119557604052565b6080810190811067ffffffffffffffff82111761119557604052565b6060810190811067ffffffffffffffff82111761119557604052565b6020810190811067ffffffffffffffff82111761119557604052565b90601f601f19910116810190811067ffffffffffffffff82111761119557604052565b67ffffffffffffffff811161119557601f01601f191660200190565b92919261127d82611255565b9161128b6040519384611232565b8294818452818301116102f6578281602093845f960137010152565b9080601f830112156102f6578160206112c293359101611271565b90565b60a06003198201126102f65760049067ffffffffffffffff82358181116102f657826112f29185016112a7565b936024358281116102f657836113099186016112a7565b936044358381116102f657846113209183016112a7565b936064358481116102f657816113379184016112a7565b936084359081116102f6576112c292016112a7565b600435906001600160a01b03821682036102f657565b602435906001600160a01b03821682036102f657565b90600182811c921680156113bf575b602083101461139257565b7f4e487b71000000000000000000000000000000000000000000000000000000005f52602260045260245ffd5b91607f1691611387565b9060405191825f82546113db81611378565b908184526020946001916001811690815f14611449575060011461140b575b50505061140992500383611232565b565b5f90815285812095935091905b81831061143157505061140993508201015f80806113fa565b85548884018501529485019487945091830191611418565b9150506114099593507fffffffffffffffffffffffffffffffffffffffffffffffffffffffffffffff0091501682840152151560051b8201015f80806113fa565b6005548110156114bf5760055f527f036b6384b5eca791c62761152d0c79bb0604c104a5fb6f4eb0703f3154bb3db001905f90565b7f4e487b71000000000000000000000000000000000000000000000000000000005f52603260045260245ffd5b90806004116102f6576112c29160046003193693019101611271565b9035907fffffffffffffffffffffffffffffffffffffffffffffffffffffffffffffffe1813603018212156102f6570180359067ffffffffffffffff82116102f6576020019181360383136102f657565b60208151910151906020811061156d575090565b5f199060200360031b1b1690565b82515f939290602a03611663576115918361442e565b915b6001600160a01b03809481851615611613575b50508273eeeeeeeeeeeeeeeeeeeeeeeeeeeeeeeeeeeeeeee926115cb6115db9361265c565b50979050801561160057906145d6565b928216036115f457508034036102f65761140991613296565b9161140992339061322f565b5060ff61160c8361457a565b16906145d6565b6115cb9450926115db929161164c602073eeeeeeeeeeeeeeeeeeeeeeeeeeeeeeeeeeeeeeee968160405193828580945193849201611132565b81015f8152030190205416945092859192506115a6565b925061167661167183611559565b6140d1565b939091611593565b908160209103126102f657516001600160a01b03811681036102f65790565b610d39906116ac923691611271565b6116b5816148e0565b7f73656e640000000000000000000000000000000000000000000000000000000081148015611917575b80156118ee575b80156118c5575b156116ff5750610bee61140991614c4b565b7f73776170000000000000000000000000000000000000000000000000000000008114801561189c575b8015611873575b801561184a575b1561174957506107fb611409916149ab565b7f6c6f636b0000000000000000000000000000000000000000000000000000000081148015611821575b1561178b5761178461029283614bba565b5f5260205ff35b7f657363726f77000000000000000000000000000000000000000000000000000081036117be57611784610f3183614bba565b7f6f72646572000000000000000000000000000000000000000000000000000000036117f7576117f0611784916149ab565b9391612a58565b60046040517f1e3382cb000000000000000000000000000000000000000000000000000000008152fd5b507f6c6f636b757000000000000000000000000000000000000000000000000000008114611773565b507f7374616b650000000000000000000000000000000000000000000000000000008114611737565b507f65786368616e67650000000000000000000000000000000000000000000000008114611730565b507f73656c6c000000000000000000000000000000000000000000000000000000008114611729565b507f6772616e7400000000000000000000000000000000000000000000000000000081146116ed565b507f706179000000000000000000000000000000000000000000000000000000000081146116e6565b507f7472616e7366657200000000000000000000000000000000000000000000000081146116df565b7f8000000000000000000000000000000000000000000000000000000000000000811461196c575f0390565b7f4e487b71000000000000000000000000000000000000000000000000000000005f52601160045260245ffd5b93919260409485519260a0840184811067ffffffffffffffff8211176111955787525f84525f60208501525f878501525f60608501525f60808501525f925f96602a8151145f14611ea4576001600160a01b036119f58261442e565b16898701525b6001600160a01b03898701511615611e6f575b508051602a03611e4d576001600160a01b03611a298261442e565b1660608601525b6001600160a01b0360608601511615611e17575b505f958151611dce575b5050805115918215611d6b5750507f8000000000000000000000000000000000000000000000000000000000000000845b8060808501521015611d4257849073eeeeeeeeeeeeeeeeeeeeeeeeeeeeeeeeeeeeeeee93846001600160a01b0384860151161480808652611d2e575b946001600160a01b0395611d10575b8560608601511614806020860152611cf1575b8051611cdf575033905b845f611aff8286880151168360608901511690614cb7565b9790936020880151158314611cd85785905b158314611cc257611c086080890151965b8a8514611ca7576401000276a4995b8051151591602082015115159160608c820151910151928c519460f81b602086015260f81b60218501523360601b60228501527fffffffffffffffffffffffffffffffffffffffff0000000000000000000000009283809260601b16603686015260601b16604a84015260601b16605e82015260528152611bb1816111de565b8389519a8b998a9889967f128acb080000000000000000000000000000000000000000000000000000000088521660048701528d15156024870152604486015216606484015260a0608484015260a4830190611153565b0393165af1908115610a56575f905f92611c71575b5083611c2b575b5050505050565b611c3a92156100fe5750611940565b10611c485780808080611c24565b600490517fc1328a53000000000000000000000000000000000000000000000000000000008152fd5b809250858092503d8311611ca0575b611c8a8183611232565b810103126102f65760208151910151905f611c1d565b503d611c80565b73fffd8963efd1fc6a506488495d951d5263988d2599611b31565b611c08611cd260808a0151611940565b96611b22565b3090611b11565b611ce89061265c565b50905090611ae7565b73c02aaa39b223fe8d0a0e5c4f27ead9083c756cc26060850152611add565b73c02aaa39b223fe8d0a0e5c4f27ead9083c756cc284860152611aca565b9250608084015134036102f6578692611abb565b600485517f35278d12000000000000000000000000000000000000000000000000000000008152fd5b7f800000000000000000000000000000000000000000000000000000000000000091611dab918015611db0575b6001600160a01b038987015116916145d6565b611a7f565b5060ff611dc86001600160a01b038a8801511661457a565b16611d98565b919550611df0918015611df8575b6001600160a01b03606086015116916145d6565b935f80611a4e565b5060ff611e116001600160a01b0360608701511661457a565b16611ddc565b611e3760206001600160a01b0392818b5193828580945193849201611132565b81015f815203019020541660608501525f611a44565b6001600160a01b039650611e6361167182611559565b97166060860152611a30565b611e8f60206001600160a01b0392818c5193828580945193849201611132565b81015f8152030190205416888601525f611a0e565b6001600160a01b039450611eba61167182611559565b9516898701526119fb565b90611ecf91611f1a565b94505050505080519060608301611ee68185611508565b90508303611f1257611f07926020611f0093012093611508565b3691611271565b602081519101201490565b505050505f90565b5f91611f2e610d3960609384933691611271565b91611f38836148e0565b7f73656e640000000000000000000000000000000000000000000000000000000081148015612633575b801561260a575b80156125e1575b1561210857505050611f8190614c4b565b80515f9493919291606091602a036120f257611f9c8461442e565b925b6001600160a01b038095818616156120be575b50611fe991611fd973eeeeeeeeeeeeeeeeeeeeeeeeeeeeeeeeeeeeeeee87938416149461265c565b50999050801561160057906145d6565b938115612072575b811561206b5786915b156120645784905b604051927fb61d27f600000000000000000000000000000000000000000000000000000000602085015216602483015260448201526060606482015261205d8161204f6084820185611153565b03601f198101835282611232565b9091929495565b5f90612002565b8391611ffa565b91506040517fa9059cbb0000000000000000000000000000000000000000000000000000000060208201528287166024820152846044820152604481526120b8816111de565b91611ff1565b611fe992955060206120dd918160405193828580945193849201611132565b81015f8152030190205416939050845f611fb1565b945061210061167184611559565b959092611f9e565b90919493507f7377617000000000000000000000000000000000000000000000000000000000811480156125b8575b801561258f575b8015612566575b156121a7575050612158612161916149ab565b93929092614f34565b94919590959293947fffffffffffffffffffffffffffffffffffffffff0000000000000000000000006040519160601b166020820152601481526121a4816111c2565b91565b7f6c6f636b0000000000000000000000000000000000000000000000000000000081959392949514801561253d575b8015612514575b1561249a57506121ec90614bba565b909395925f959295505f96602a8751145f146124845761220b8761442e565b965b6001600160a01b039081891615612445575b5050612245876122519361223561224b9461265c565b509b9050801561160057906145d6565b9561557f565b91611559565b7f6d696e75746500000000000000000000000000000000000000000000000000008114801561241c575b1561228d5750603c025b420193929495565b7f6461790000000000000000000000000000000000000000000000000000000000811480156123f3575b156122c757506201518002612285565b7f7765656b00000000000000000000000000000000000000000000000000000000811480156123ca575b15612301575062093a8002612285565b7f6d6f6e7468000000000000000000000000000000000000000000000000000000811480156123a1575b1561233b57506224ea0002612285565b7f79656172000000000000000000000000000000000000000000000000000000008114908115612377575b50156117f7576301dfe20002612285565b7f79656172730000000000000000000000000000000000000000000000000000009150145f612366565b507f6d6f6e7468730000000000000000000000000000000000000000000000000000811461232b565b507f7765656b7300000000000000000000000000000000000000000000000000000081146122f1565b507f646179730000000000000000000000000000000000000000000000000000000081146122b7565b507f6d696e7574657300000000000000000000000000000000000000000000000000811461227b565b612235985091612251936122459261246f602061224b968160405193828580945193849201611132565b81015f8152030190205416995093509161221f565b965061249261167187611559565b97909661220d565b909392907f6f72646572000000000000000000000000000000000000000000000000000000036117f7576124f16121587fffffffffffffffffffffffffffffffffffffffff000000000000000000000000956149ab565b604051951b9097166020850152601484529194909391929091906121a4816111c2565b507f657363726f77000000000000000000000000000000000000000000000000000081146121dd565b507f6c6f636b7570000000000000000000000000000000000000000000000000000081146121d6565b507f7374616b650000000000000000000000000000000000000000000000000000008114612145565b507f65786368616e6765000000000000000000000000000000000000000000000000811461213e565b507f73656c6c000000000000000000000000000000000000000000000000000000008114612137565b507f6772616e740000000000000000000000000000000000000000000000000000008114611f70565b507f70617900000000000000000000000000000000000000000000000000000000008114611f69565b507f7472616e736665720000000000000000000000000000000000000000000000008114611f62565b80515f92918391602a810361267557506121a49061442e565b93509190506040908151846126938296602096878086019101611132565b81017f2e6574680000000000000000000000000000000000000000000000000000000085820152036024946126d18660049384810184520182611232565b5f9085815180818654905b61290457508190039201012084519086820192835285820152848152612701816111fa565b5190209280517f02571be300000000000000000000000000000000000000000000000000000000815284838201526e0c2e074ec69a0dfb2997ba6c7d2e1e96868282818b5afa918215610a8f575f926128e5575b50819773d4416b13d2b3a9abae7acd5d6c2bbdbe25686401806001600160a01b0380951614612877575b508782918551938480927f0178b8bf0000000000000000000000000000000000000000000000000000000082528b8a8301525afa918215610a565791889184935f92612858575b508551809481937f3b3b57de0000000000000000000000000000000000000000000000000000000083528b8a840152165afa968715610a8f575f97612839575b5050851615612813575050565b517f1e4ec46b000000000000000000000000000000000000000000000000000000008152fd5b612850929750803d10610a4f57610a3d8183611232565b945f80612806565b612870919250833d8511610a4f57610a3d8183611232565b905f6127c6565b8291995088908551928380927f6352211e0000000000000000000000000000000000000000000000000000000082528b8a8301525afa908115610a5657829189915f916128c8575b5099915061277f565b6128df9150823d8411610a4f57610a3d8183611232565b5f6128bf565b6128fd919250873d8911610a4f57610a3d8183611232565b905f612755565b9250905f19810190612916828661441d565b517fff0000000000000000000000000000000000000000000000000000000000000081167f2e000000000000000000000000000000000000000000000000000000000000008114612a25577f800000000000000000000000000000000000000000000000000000000000000011156102f65760f88582821c10156129fa579060ff91895f528160fd1c7f8a35acfbc15ff81a39ae7d344fd709f28e8600b4aa8c65c6b64bfe7fe36bd19b01549160f51c161c1680156102f6575f1992600182116129e8575b50505b01908892826126dc565b6129f2908761441d565b535f806129db565b8c60328a7f4e487b71000000000000000000000000000000000000000000000000000000005f52525ffd5b50509194825f199296038a84870101208951908b82019283528a820152898152612a4e816111fa565b51902094916129de565b909493919268929eee149b4bd212689530875414612e9857612b599230885560405195612a8487611178565b5f87525f60208801525f60408801525f60608801525f60808801525f60a08801525f60c08801525f60e08801525f8092602a8151145f14612e79576001600160a01b03612ad08261442e565b1689525b6001600160a01b0389511615612e45575b508351602a03612e1f57836001600160a01b03612b05612b39959661442e565b1660208a01525b6001600160a01b0360208a01511615612de8575b508015612dcc575b6001600160a01b03885116916145d6565b60408601528015612dad575b6001600160a01b03602086015116916145d6565b606083015273eeeeeeeeeeeeeeeeeeeeeeeeeeeeeeeeeeeeeeee6001600160a01b0383511614612d9e575b3360808301528051612d8557506001600160a01b03335b1660a082015265ffffffffffff80421660c08301528062093a8042011660e083015260405160208101916001600160a01b0384511683526001600160a01b03602085015116604083015260408401516060830152606084015160808301526001600160a01b0360808501511660a08301526001600160a01b0360a08501511660c08301528060c08501511660e083015260e0840151906101009116818301528152610120810181811067ffffffffffffffff8211176111955760405251902090815f526002602052600560405f20916001600160a01b038151167fffffffffffffffffffffffff00000000000000000000000000000000000000009081855416178455600184016001600160a01b0360208401511682825416179055604082015160028501556060820151600385015560048401906001600160a01b03608084015116908254161790556001600160a01b0360a082015116907fffffffffffff000000000000000000000000000000000000000000000000000060e079ffffffffffff000000000000000000000000000000000000000060c084015160a01b1692015160d01b169117179101556005546801000000000000000081101561119557806001612d6c920160055561148a565b81549060031b905f1984831b921b191617905591389055565b612d966001600160a01b039161265c565b509050612b9b565b60408201513414612b84575f80fd5b5060ff612dc66001600160a01b0360208701511661457a565b16612b45565b5060ff612de26001600160a01b0389511661457a565b16612b28565b612e0960206001600160a01b03928160405193828580945193849201611132565b81015f815203019020541660208901525f612b20565b612b39925083612e396116716001600160a01b0396611559565b951660208a0152612b0c565b612e6660206001600160a01b03928160405193828580945193849201611132565b81015f815203019020541688525f612ae5565b6001600160a01b039150612e8f61167182611559565b92168952612ad4565b63ab143c065f526004601cfd5b91908260409103126102f65781356001600160a01b03811681036102f657916020013590565b90806044116102f657612ee46044830160048401612ea5565b6001600160a01b0392918316908061318657508160881192836102f6577fffffffff00000000000000000000000000000000000000000000000000000000608486013516937fa9059cbb0000000000000000000000000000000000000000000000000000000085149485159081613158575b5061312e576102f657612f68826152f4565b9590928396809451156130fe575b9160279593916112c2979593156130da575b50612fa0816088612fec9596612fe594019101612ea5565b9490955f1461309e57604051612fb5816111c2565b600581527f73656e6420000000000000000000000000000000000000000000000000000000602082015294615168565b9316615222565b9061308f60405196879460209361300b8151809287808b019101611132565b860161301f82518093878085019101611132565b017f2000000000000000000000000000000000000000000000000000000000000000848201526130588251809386602185019101611132565b01917f20746f2030780000000000000000000000000000000000000000000000000000602184015283519384918785019101611132565b01036007810184520182611232565b6040516130aa816111c2565b600881527f617070726f766520000000000000000000000000000000000000000000000000602082015294615168565b612fec9350612fe591608860ff6130f3612fa09461457a565b169550509150612f88565b9650916112c295939183602796945f52600160205261311f60405f206113c9565b98919395975091939550612f76565b60046040517f7352d91c000000000000000000000000000000000000000000000000000000008152fd5b9150507f095ea7b3000000000000000000000000000000000000000000000000000000005f9114155f612f56565b6131a49194506112c29350602f925061319e90615064565b93615222565b926040519384917f73656e642000000000000000000000000000000000000000000000000000000060208401526131e5815180926020602587019101611132565b82017f2045544820746f2030780000000000000000000000000000000000000000000060258201526132208251809360208785019101611132565b0103600f810184520182611232565b916040519360605260405260601b602c526f23b872dd000000000000000000000000600c5260205f6064601c82855af1908160015f51141615613278575b50505f606052604052565b3b153d171015613289575f8061326d565b637939f4245f526004601cfd5b5f80809338935af1156132a557565b63b12d13eb5f526004601cfd5b969594916133039360c095926001600160a01b0392838092168b521660208a01521660408801526d1d8a2e7bf6bc369525a2654aa2986060880152608087015260e060a087015260e0860190611153565b930152565b959493909260c093613303935f89526001600160a01b0380921660208a01521660408801526d1d8a2e7bf6bc369525a2654aa2986060880152608087015260e060a087015260e0860190611153565b93925f93602a8451145f14613a735761336f8461442e565b915b6001600160a01b039081841615613a4a575b61338c8861265c565b50979050848115613a34576133a2915b876145d6565b936133ac8261557f565b6133b585611559565b7f6d696e757465000000000000000000000000000000000000000000000000000081148015613a0b575b156137e05750603c810290808204603c149015171561196c5773eeeeeeeeeeeeeeeeeeeeeeeeeeeeeeeeeeeeeeee90935b8216036135dc57508334036102f65760316135459185946040519788926020809d819c7f6c6f636b00000000000000000000000000000000000000000000000000000000838801527f200000000000000000000000000000000000000000000000000000000000000094856024890152613493815180928660258c019101611132565b87018560258201526134ae8251809386602685019101611132565b018460268201526134f67f666f7200000000000000000000000000000000000000000000000000000000009384602784015286602a8401528351938491602b85019101611132565b019083602b830152602c82015282602f82015261351d8c8351938491603085019101611132565b01906030820152613536825180938c8785019101611132565b01036011810187520185611232565b613582604051968795869485947f8e3de7ab0000000000000000000000000000000000000000000000000000000086524201923360048701613308565b03916d44992cb97cb1a57a32e271c04c115af19182156135d1575f926135a757505090565b90809250813d83116135ca575b6135be8183611232565b810103126102f6575190565b503d6135b4565b6040513d5f823e3d90fd5b909497956135ee85949530338561322f565b6d44992cb97cb1a57a32e271c04c119485601452846034526f095ea7b30000000000000000000000005f526020998a97885f6044601082895af1998a60015f511416156137bd575b899a505f603452604051998a958187017f6c6f636b0000000000000000000000000000000000000000000000000000000090527f200000000000000000000000000000000000000000000000000000000000000094856024890152805190818460258b019201916136a692611132565b87018560258201528151918284602684019201916136c392611132565b018460268201527f666f7200000000000000000000000000000000000000000000000000000000009283602783015285602a83015280518093602b840192019161370c92611132565b019083602b830152602c82015282602f820152815191828c6030840192019161373492611132565b01906030820152815191828a6031840192019161375092611132565b01036011810186526031016137659086611232565b604051968795869485947f8e3de7ab0000000000000000000000000000000000000000000000000000000086524201923360048701956137a4966132b2565b03915a905f91f19182156135d1575f926135a757505090565b9850983d853b151710156137d357888b98613636565b633e3f8f735f526004601cfd5b7f6461790000000000000000000000000000000000000000000000000000000000811480156139e2575b156138415750620151809081810291818304149015171561196c5773eeeeeeeeeeeeeeeeeeeeeeeeeeeeeeeeeeeeeeee9093613410565b7f7765656b00000000000000000000000000000000000000000000000000000000811480156139b9575b156138a2575062093a809081810291818304149015171561196c5773eeeeeeeeeeeeeeeeeeeeeeeeeeeeeeeeeeeeeeee9093613410565b7f6d6f6e746800000000000000000000000000000000000000000000000000000081148015613990575b1561390357506224ea009081810291818304149015171561196c5773eeeeeeeeeeeeeeeeeeeeeeeeeeeeeeeeeeeeeeee9093613410565b7f79656172000000000000000000000000000000000000000000000000000000008114908115613966575b50156117f7576301dfe2009081810291818304149015171561196c5773eeeeeeeeeeeeeeeeeeeeeeeeeeeeeeeeeeeeeeee9093613410565b7f79656172730000000000000000000000000000000000000000000000000000009150145f61392e565b507f6d6f6e746873000000000000000000000000000000000000000000000000000081146138cc565b507f7765656b73000000000000000000000000000000000000000000000000000000811461386b565b507f6461797300000000000000000000000000000000000000000000000000000000811461380a565b507f6d696e757465730000000000000000000000000000000000000000000000000081146133df565b6133a2915060ff613a448261457a565b1661339c565b9250806040516020818851613a628183858d01611132565b81015f815203019020541692613383565b9350613a8161167184611559565b949091613371565b93925f93602a8451145f1461406e57613aa18461442e565b915b6001600160a01b039081841615614045575b613abe8861265c565b5097905084811561403557613ad391876145d6565b93613add8261557f565b613ae685611559565b7f6d696e75746500000000000000000000000000000000000000000000000000008114801561400c575b15613de15750603c810290808204603c149015171561196c5773eeeeeeeeeeeeeeeeeeeeeeeeeeeeeeeeeeeeeeee90935b821603613c0257508334036102f6576031613bc49185946040519788926020809d819c7f6c6f636b00000000000000000000000000000000000000000000000000000000838801527f200000000000000000000000000000000000000000000000000000000000000094856024890152613493815180928660258c019101611132565b613582604051968795869485947f8e3de7ab000000000000000000000000000000000000000000000000000000008652420192339060048701613308565b90949795613c1485949530338561322f565b6d44992cb97cb1a57a32e271c04c119485601452846034526f095ea7b30000000000000000000000005f526020998a97885f6044601082895af1998a60015f51141615613dcb575b899a505f603452604051998a958187017f6c6f636b0000000000000000000000000000000000000000000000000000000090527f200000000000000000000000000000000000000000000000000000000000000094856024890152805190818460258b01920191613ccc92611132565b8701856025820152815191828460268401920191613ce992611132565b018460268201527f666f7200000000000000000000000000000000000000000000000000000000009283602783015285602a83015280518093602b8401920191613d3292611132565b019083602b830152602c82015282602f820152815191828c60308401920191613d5a92611132565b01906030820152815191828a60318401920191613d7692611132565b0103601181018652603101613d8b9086611232565b604051968795869485947f8e3de7ab000000000000000000000000000000000000000000000000000000008652420192339060048701956137a4966132b2565b9850983d853b151710156137d357888b98613c5c565b7f646179000000000000000000000000000000000000000000000000000000000081148015613fe3575b15613e425750620151809081810291818304149015171561196c5773eeeeeeeeeeeeeeeeeeeeeeeeeeeeeeeeeeeeeeee9093613b41565b7f7765656b0000000000000000000000000000000000000000000000000000000081148015613fba575b15613ea3575062093a809081810291818304149015171561196c5773eeeeeeeeeeeeeeeeeeeeeeeeeeeeeeeeeeeeeeee9093613b41565b7f6d6f6e746800000000000000000000000000000000000000000000000000000081148015613f91575b15613f0457506224ea009081810291818304149015171561196c5773eeeeeeeeeeeeeeeeeeeeeeeeeeeeeeeeeeeeeeee9093613b41565b7f79656172000000000000000000000000000000000000000000000000000000008114908115613f67575b50156117f7576301dfe2009081810291818304149015171561196c5773eeeeeeeeeeeeeeeeeeeeeeeeeeeeeeeeeeeeeeee9093613b41565b7f79656172730000000000000000000000000000000000000000000000000000009150145f613f2f565b507f6d6f6e74687300000000000000000000000000000000000000000000000000008114613ecd565b507f7765656b730000000000000000000000000000000000000000000000000000008114613e6c565b507f64617973000000000000000000000000000000000000000000000000000000008114613e0b565b507f6d696e75746573000000000000000000000000000000000000000000000000008114613b10565b613ad3915060ff613a448261457a565b925080604051602081885161405d8183858d01611132565b81015f815203019020541692613ab5565b935061407c61167184611559565b949091613aa3565b90815191604051835b5f19810190601f8185015160ff1660206bffffffc00000000000000000821c161891840101538061408d57505050604080519280845283015f602082015201604052565b5f915f917f6574680000000000000000000000000000000000000000000000000000000000811480156143f4575b6143d6577f757364630000000000000000000000000000000000000000000000000000000081146143b8577f75736474000000000000000000000000000000000000000000000000000000008114801561438f575b614371577f64616900000000000000000000000000000000000000000000000000000000008114614353577f77657468000000000000000000000000000000000000000000000000000000008114614335577f77627463000000000000000000000000000000000000000000000000000000008114801561430c575b80156142e3575b6142c5577f73746574680000000000000000000000000000000000000000000000000000008114801561429c575b8015614273575b614255577f72657468000000000000000000000000000000000000000000000000000000001461423857565b73ae78736cd615f374d3085123a210448e74fc6393925060129150565b50737f39c581f595b53c5cb19bd0b3f8da6c935e2ca0925060129150565b507f6c69646f00000000000000000000000000000000000000000000000000000000811461420c565b507f77737465746800000000000000000000000000000000000000000000000000008114614205565b50732260fac5e5542a773aa44fbcfedf7c193bc2c599925060089150565b507f626974636f696e0000000000000000000000000000000000000000000000000081146141d7565b507f627463000000000000000000000000000000000000000000000000000000000081146141d0565b5073c02aaa39b223fe8d0a0e5c4f27ead9083c756cc2925060129150565b50736b175474e89094c44da98b954eedeac495271d0f925060129150565b5073dac17f958d2ee523a2206206994597c13d831ec7925060069150565b507f74657468657200000000000000000000000000000000000000000000000000008114614154565b5073a0b86991c6218b36c1d19d4a2e9eb0ce3606eb48925060069150565b5073eeeeeeeeeeeeeeeeeeeeeeeeeeeeeeeeeeeeeeee925060129150565b507f657468657200000000000000000000000000000000000000000000000000000081146140ff565b9081518110156114bf570160200190565b602a808251036117f7575f906002925b8184036144555750506001600160a01b0391501690565b9091600490811b90614467858461441d565b5160f81c9060308210158061456f575b156144b157507fffffffffffffffffffffffffffffffffffffffffffffffffffffffffffffffd00160ff1601926001905b0192919061443e565b604182101580614564575b156144f157507fffffffffffffffffffffffffffffffffffffffffffffffffffffffffffffffc90160ff1601926001906144a8565b606182101580614559575b1561453157507fffffffffffffffffffffffffffffffffffffffffffffffffffffffffffffffa90160ff1601926001906144a8565b6040517f1e3382cb000000000000000000000000000000000000000000000000000000008152fd5b5060668211156144fc565b5060468211156144bc565b506039821115614477565b60208060048160ff9463313ce5678352825f52620186a0fa601f3d1116602051021690565b81156145a9570490565b7f4e487b71000000000000000000000000000000000000000000000000000000005f52601260045260245ffd5b92915f6145e285611559565b7f616c6c000000000000000000000000000000000000000000000000000000000081149081156148b6575b5061487a578451945f905f905f975f5b8181106146af575b50505090155f1461468f575082600a0a02935b614640575050565b91926112c2926001600160a01b03811673eeeeeeeeeeeeeeeeeeeeeeeeeeeeeeeeeeeeeeee0361467e575033313401915b600a0a606402910261459f565b614689903390615609565b91614671565b8381969296106146a0575b50614638565b8303600a0a909402935f61469a565b6146b9818461441d565b517fff0000000000000000000000000000000000000000000000000000000000000081167f300000000000000000000000000000000000000000000000000000000000000081101580614850575b1561476557508596600a7fffffffffffffffffffffffffffffffffffffffffffffffffffffffffffffffd09260f89897981c9102010195614750575b6001905b0193929361461d565b93600101938785111561474357939293614625565b90507f2e0000000000000000000000000000000000000000000000000000000000000081969295961480614848575b156147a457505060018093614747565b7f2500000000000000000000000000000000000000000000000000000000000000819b92959b148061483c575b156147e157505060018099614747565b9099907fe0000000000000000000000000000000000000000000000000000000000000000161481257600190614747565b60046040517f312a9f56000000000000000000000000000000000000000000000000000000008152fd5b505f1983018b146147d1565b508115614794565b507f3900000000000000000000000000000000000000000000000000000000000000811115614707565b50919250506001600160a01b03811673eeeeeeeeeeeeeeeeeeeeeeeeeeeeeeeeeeeeeeee036148ab57503331340190565b6112c2903390615609565b7f31303025000000000000000000000000000000000000000000000000000000009150145f61460d565b60208091015160205f5b838110614903575b505f1991925060200360031b1b1690565b82811a848115911417614918576001016148ea565b90505f1991925082916148f2565b8051600110156114bf5760400190565b8051600410156114bf5760a00190565b8051600210156114bf5760600190565b8051600510156114bf5760c00190565b8051600710156114bf576101000190565b8051600310156114bf5760800190565b8051600610156114bf5760e00190565b80518210156114bf5760209160051b010190565b6149b48161564a565b805160058103614a795750906149db6149d66149cf84614926565b51836157ed565b615858565b15614a3257614a0c6149ef6149cf84614926565b91614a056149ff6149cf86614946565b94614936565b51906157ed565b9092604051614a1a81611216565b5f8152929190604051614a2c81611216565b5f815290565b91614a59614a49614a4284614977565b51856157ed565b93614a056149ff6149cf86614926565b90604051614a6681611216565b5f815293929190604051614a2c81611216565b60068103614ad557509091614a97614a9083614926565b51846157ed565b90614ac4614aae614aa785614936565b51866157ed565b94614a05614abe6149cf87614946565b95614956565b9193929190604051614a2c81611216565b60078103614b6d5750614aed6149d6614a9083614926565b15614b3a57614afe6149cf82614926565b614b23614b0d614a4284614946565b93614a05614b1d6149cf86614936565b94614987565b9093604051614b3181611216565b5f815293929190565b614b466149cf82614977565b92614b56614b0d614a4284614926565b90604051614b6381611216565b5f81529493929190565b6008036117f757614b806149cf82614926565b614b8c614a9083614936565b93614bb2614b9c614aa785614946565b94614a05614bac6149cf87614956565b95614966565b919493929190565b614bc38161564a565b6007815114614c0d5780516008036117f757614be16149cf82614936565b614bed614a9083614926565b93614bb2614bfd614aa785614946565b94614a05614bac6149cf87614987565b614c196149cf82614926565b614c25614a9083614946565b93614bb2614c35614aa785614977565b94614a05614c456149cf87614956565b95614987565b614c548161564a565b916004835114614c925782516005036117f757614c8c614c76614a9085614936565b92614a05614c866149cf87614926565b95614946565b91929190565b614c8c614ca1614a9085614926565b92614a05614cb16149cf87614946565b95614977565b90916001600160a01b03915f8385168483161015614f2b57506001925b614cde8583615925565b9481861615614cec57505050565b908281939650165f52602094600386526040805f208484165f52875283815f205416968715614d1c575050505050565b9091929380959750606083518581528684820152606485820152209360ff5f537fe34f199b19b2b4f47f68442619d555527d244f78a3297ea89325f843f87b8b54956035958787527f1f98431c8ad98523631ae4a59f267346ea31f984000000000000000000000000908160015260155260555f20975f88526060875185815284888201526101f4898201522060ff5f538189528260015260155260555f20915f8952606088518681528589820152610bb88a8201522060ff5f53828a5281600152601552606060555f20945f8b52895190878252898201526127108a820152209160ff5f5389526001526015525f6055812097528551614e1c816111c2565b5f81525f8682015297803b614f03575b50803b614ec8575b50803b614e8d575b50843b614e56575b50505050505116915f80808080611c24565b84614e6091615609565b9282860151841115614e44579091929394505193614e7d856111c2565b1683528201525f80808481614e44565b614e978183615609565b848801518111614ea8575b50614e3c565b9091965082855192614eb9846111c2565b16825283820152945f80614ea2565b614ed28184615609565b858901518111614ee3575b50614e34565b9091975083865192614ef4846111c2565b16825284820152955f80614edd565b909750614f108184615609565b84875192614f1d846111c2565b16825285820152965f614e2c565b92909390614cd4565b949291925f915f965f97602a8751145f1461505057614f528761442e565b965b6001600160a01b039081891615615022575b508651602a036150095790879291614f7d8861442e565b975b81891615614fcc575b50508692614fb19492614fa4928015155f1461160057906145d6565b98801561160057906145d6565b948051614fbb5750565b614fc691925061265c565b50905090565b614fb19593985090614ff26020614fa49496938160405193828580945193849201611132565b81015f815203019020541697929481949250614f88565b985090869161501a61167188611559565b9a9097614f7f565b819850602061503e918160405193828580945193849201611132565b81015f8152030190205416965f614f66565b5061505d61167187611559565b9096614f54565b90615083670de0b6b3a764000061507c818504615b3c565b9306615b3c565b60128151146150e6576150e160405191826020917f3000000000000000000000000000000000000000000000000000000000000000838301526150d160219382519283918686019101611132565b8101036001810184520182611232565b615083565b6150f290929192615b82565b908151156151635760216112c2916040519381615119869351809260208087019101611132565b82017f2e0000000000000000000000000000000000000000000000000000000000000060208201526151548251809360208785019101611132565b01036001810184520182611232565b905090565b91909182600a0a9061518261517d838361459f565b615b3c565b9180156145a9576151939106615b3c565b838151146151e5576151e060405191826020917f3000000000000000000000000000000000000000000000000000000000000000838301526150d160219382519283918686019101611132565b615193565b6150f291929350615b82565b906151fb82611255565b6152086040519182611232565b828152601f196152188294611255565b0190602036910137565b6040519061522f826111fa565b6028825260403660208401375f5b6014810361524a57505090565b600190816152ed61526c828460130360031b1b6001600160a01b03871661459f565b916152e37fff000000000000000000000000000000000000000000000000000000000000006152bf7f0f000000000000000000000000000000000000000000000000000000000000008660f41b16615c5b565b9486841b955f1a6152d0878c61441d565b5360ff60f0821691160360f81b16615c5b565b5f1a92018661441d565b530161523d565b6060916001600160a01b035f921673a0b86991c6218b36c1d19d4a2e9eb0ce3606eb48811461553f5773dac17f958d2ee523a2206206994597c13d831ec781146154ff57736b175474e89094c44da98b954eedeac495271d0f81146154bf5773c02aaa39b223fe8d0a0e5c4f27ead9083c756cc2811461547f57732260fac5e5542a773aa44fbcfedf7c193bc2c599811461543f57737f39c581f595b53c5cb19bd0b3f8da6c935e2ca081146153ff5773ae78736cd615f374d3085123a210448e74fc6393146153c057565b9150506040516153cf816111c2565b600481527f5245544800000000000000000000000000000000000000000000000000000000602082015290601290565b5091505060405161540f816111c2565b600681527f5753544554480000000000000000000000000000000000000000000000000000602082015290601290565b5091505060405161544f816111c2565b600481527f5742544300000000000000000000000000000000000000000000000000000000602082015290600890565b5091505060405161548f816111c2565b600481527f5745544800000000000000000000000000000000000000000000000000000000602082015290601290565b509150506040516154cf816111c2565b600381527f4441490000000000000000000000000000000000000000000000000000000000602082015290601290565b5091505060405161550f816111c2565b600481527f5553445400000000000000000000000000000000000000000000000000000000602082015290600690565b5091505060405161554f816111c2565b600481527f5553444300000000000000000000000000000000000000000000000000000000602082015290600690565b905f805b8351821461560457615595828561441d565b5190603060f892831c1015806155ed575b1561481257600a60ff7fffffffffffffffffffffffffffffffffffffffffffffffffffffffffffffffd06001946155dd878a61441d565b51901c0116910201910190615583565b5060396155fa848761441d565b51831c11156155a6565b925050565b602460106020939284936f70a082310000000000000000000000005f526014525afa5060205190565b67ffffffffffffffff81116111955760051b60200190565b908151906001915f5b818103615786575061566483615632565b601f1961568260409561567a6040519485611232565b808452615632565b015f5b81811061576457505080935f925f915f5b8281036156cd5750506156ca94959650604051916156b3836111c2565b825260208201526156c48383614997565b52614997565b50565b7f20000000000000000000000000000000000000000000000000000000000000007fff00000000000000000000000000000000000000000000000000000000000000615719838c61441d565b511614615729575b600101615696565b92946157599082519661573b886111c2565b875284602088015260018101966157528288614997565b5285614997565b506001830192615721565b6020908651615772816111c2565b5f8152825f81830152828601015201615685565b7f20000000000000000000000000000000000000000000000000000000000000007fff000000000000000000000000000000000000000000000000000000000000006157d2838861441d565b5116146157e2575b600101615653565b6001909301926157da565b91906158006020820151825190036151f1565b905f5b8251811461585157807fff0000000000000000000000000000000000000000000000000000000000000061583c6001938551018861441d565b51165f1a61584a828661441d565b5301615803565b5090925050565b7f616c6c000000000000000000000000000000000000000000000000000000000061588282611559565b1461591f578051156114bf57602081017fff000000000000000000000000000000000000000000000000000000000000007f300000000000000000000000000000000000000000000000000000000000000081835116101592836158e7575b50505090565b9091925051156114bf577f390000000000000000000000000000000000000000000000000000000000000091511611155f80806158e1565b50600190565b91905f926001600160a01b0380911690737f39c581f595b53c5cb19bd0b3f8da6c935e2ca0821480615b1d575b615b015773ae78736cd615f374d3085123a210448e74fc6393821480615ae2575b615ac65773a0b86991c6218b36c1d19d4a2e9eb0ce3606eb48821480615aa7575b615a8b5773c02aaa39b223fe8d0a0e5c4f27ead9083c756cc29182811480615a6c575b615a4f57736b175474e89094c44da98b954eedeac495271d0f811480615a44575b615a2757732260fac5e5542a773aa44fbcfedf7c193bc2c599149283615a1b575b505050615a0257565b734585fe77225b41b697c938b018e2ac67ac5a20c09150565b161490505f80806159f9565b5073c2e9f25be6257c210d7adf0d4cd6e3e881ba25f89450505050565b5082828516146159d8565b507311b815efb8f581194ae79006d24e0d814b7697f69450505050565b5073dac17f958d2ee523a2206206994597c13d831ec7828516146159b7565b507388e6a0c2ddd26feeb64f039a2c41296fcb3f564093505050565b5073c02aaa39b223fe8d0a0e5c4f27ead9083c756cc281841614615994565b5073553e9c493678d8606d6a5ba284643db2110df82393505050565b5073c02aaa39b223fe8d0a0e5c4f27ead9083c756cc281841614615973565b5073109830a1aaad605bbf02a9dfa7b0b92ec2fb7daa93505050565b5073c02aaa39b223fe8d0a0e5c4f27ead9083c756cc281841614615952565b906040515f19608082019360a083016040525f8552935b0192600a90818106603001855304928315615b70575f1990615b53565b9250608083601f199203019201918252565b90815190815b80151580615c03575b15615b9e575f1901615b88565b909181146156ca57615baf816151f1565b905f5b818103615bc0575090925050565b807fff00000000000000000000000000000000000000000000000000000000000000615bee6001938861441d565b51165f1a615bfc828661441d565b5301615bb2565b507f30000000000000000000000000000000000000000000000000000000000000007fff00000000000000000000000000000000000000000000000000000000000000615c535f1984018761441d565b511614615b91565b7fff000000000000000000000000000000000000000000000000000000000000009060f81c600f16600a811015615c98576030905b0160f81b1690565b605790615c9056fea26469706673582212208ee8723ef7b14d9097fbb35cec8b9bdd378fd5104a9a145a055acd7657d4d32564736f6c63430008180033","linkReferences":{}},"methodIdentifiers":{"addresses(string)":"bdfe7d47","cancelOrder(bytes32)":"7489ec23","checkUserOp(string,(address,uint256,bytes,bytes,bytes32,uint256,bytes32,bytes,bytes))":"a35e6511","command(string)":"5fcc4500","command(string[])":"52a13e88","escrow(string,string,string,string,string)":"1db51297","executeOrder(bytes32)":"049b76c4","lock(string,string,string,string,string)":"fdbfc0a6","names(address)":"5cf3d346","order(string,string,string,string,string)":"d315e54f","orderHashes(uint256)":"df69558c","orders(bytes32)":"9c3f1e90","pairs(address,address)":"69454b86","previewCommand(string)":"bfe68676","send(string,string,string)":"5615264d","setName(address,string)":"3121db1c","setPair(address,address,address)":"7bb41012","swap(string,string,string,string,string)":"6662c9e3","translateCommand(bytes)":"04659197","translateExecute(bytes)":"f12a64eb","translateUserOp((address,uint256,bytes,bytes,bytes32,uint256,bytes32,bytes,bytes))":"579a8c4c","whatIsTheAddressOf(string)":"c47d04e2","whatIsTheNameOf(address)":"5a274d62"},"id":80}