{"abi":[{"type":"constructor","inputs":[],"stateMutability":"payable"},{"type":"fallback","stateMutability":"payable"},{"type":"receive","stateMutability":"payable"},{"type":"function","name":"addresses","inputs":[{"name":"name","type":"string","internalType":"string"}],"outputs":[{"name":"","type":"address","internalType":"address"}],"stateMutability":"view"},{"type":"function","name":"cancelOrder","inputs":[{"name":"hash","type":"bytes32","internalType":"bytes32"}],"outputs":[],"stateMutability":"nonpayable"},{"type":"function","name":"checkUserOp","inputs":[{"name":"intent","type":"string","internalType":"string"},{"name":"userOp","type":"tuple","internalType":"struct IETH.PackedUserOperation","components":[{"name":"sender","type":"address","internalType":"address"},{"name":"nonce","type":"uint256","internalType":"uint256"},{"name":"initCode","type":"bytes","internalType":"bytes"},{"name":"callData","type":"bytes","internalType":"bytes"},{"name":"accountGasLimits","type":"bytes32","internalType":"bytes32"},{"name":"preVerificationGas","type":"uint256","internalType":"uint256"},{"name":"gasFees","type":"bytes32","internalType":"bytes32"},{"name":"paymasterAndData","type":"bytes","internalType":"bytes"},{"name":"signature","type":"bytes","internalType":"bytes"}]}],"outputs":[{"name":"intentMatched","type":"bool","internalType":"bool"}],"stateMutability":"view"},{"type":"function","name":"command","inputs":[{"name":"intents","type":"string[]","internalType":"string[]"}],"outputs":[],"stateMutability":"payable"},{"type":"function","name":"command","inputs":[{"name":"intent","type":"string","internalType":"string"}],"outputs":[],"stateMutability":"payable"},{"type":"function","name":"escrow","inputs":[{"name":"to","type":"string","internalType":"string"},{"name":"amount","type":"string","internalType":"string"},{"name":"token","type":"string","internalType":"string"},{"name":"time","type":"string","internalType":"string"},{"name":"unit","type":"string","internalType":"string"}],"outputs":[{"name":"","type":"bytes32","internalType":"bytes32"}],"stateMutability":"payable"},{"type":"function","name":"executeOrder","inputs":[{"name":"hash","type":"bytes32","internalType":"bytes32"}],"outputs":[],"stateMutability":"payable"},{"type":"function","name":"lock","inputs":[{"name":"to","type":"string","internalType":"string"},{"name":"amount","type":"string","internalType":"string"},{"name":"token","type":"string","internalType":"string"},{"name":"time","type":"string","internalType":"string"},{"name":"unit","type":"string","internalType":"string"}],"outputs":[{"name":"","type":"bytes32","internalType":"bytes32"}],"stateMutability":"payable"},{"type":"function","name":"names","inputs":[{"name":"addresses","type":"address","internalType":"address"}],"outputs":[{"name":"","type":"string","internalType":"string"}],"stateMutability":"view"},{"type":"function","name":"order","inputs":[{"name":"tokenIn","type":"string","internalType":"string"},{"name":"tokenOut","type":"string","internalType":"string"},{"name":"amountIn","type":"string","internalType":"string"},{"name":"amountOut","type":"string","internalType":"string"},{"name":"receiver","type":"string","internalType":"string"}],"outputs":[{"name":"hash","type":"bytes32","internalType":"bytes32"}],"stateMutability":"payable"},{"type":"function","name":"orderHashes","inputs":[{"name":"","type":"uint256","internalType":"uint256"}],"outputs":[{"name":"","type":"bytes32","internalType":"bytes32"}],"stateMutability":"view"},{"type":"function","name":"orders","inputs":[{"name":"orderHash","type":"bytes32","internalType":"bytes32"}],"outputs":[{"name":"tokenIn","type":"address","internalType":"address"},{"name":"tokenOut","type":"address","internalType":"address"},{"name":"amountIn","type":"uint256","internalType":"uint256"},{"name":"amountOut","type":"uint256","internalType":"uint256"},{"name":"maker","type":"address","internalType":"address"},{"name":"receiver","type":"address","internalType":"address"},{"name":"nonce","type":"uint48","internalType":"uint48"},{"name":"expiry","type":"uint48","internalType":"uint48"}],"stateMutability":"view"},{"type":"function","name":"pairs","inputs":[{"name":"token0","type":"address","internalType":"address"},{"name":"token1","type":"address","internalType":"address"}],"outputs":[{"name":"","type":"address","internalType":"address"}],"stateMutability":"view"},{"type":"function","name":"previewCommand","inputs":[{"name":"intent","type":"string","internalType":"string"}],"outputs":[{"name":"to","type":"address","internalType":"address"},{"name":"amount","type":"uint256","internalType":"uint256"},{"name":"minAmountOut","type":"uint256","internalType":"uint256"},{"name":"token","type":"address","internalType":"address"},{"name":"callData","type":"bytes","internalType":"bytes"},{"name":"executeCallData","type":"bytes","internalType":"bytes"}],"stateMutability":"view"},{"type":"function","name":"send","inputs":[{"name":"to","type":"string","internalType":"string"},{"name":"amount","type":"string","internalType":"string"},{"name":"token","type":"string","internalType":"string"}],"outputs":[],"stateMutability":"payable"},{"type":"function","name":"setName","inputs":[{"name":"token","type":"address","internalType":"address"},{"name":"name","type":"string","internalType":"string"}],"outputs":[],"stateMutability":"payable"},{"type":"function","name":"setPair","inputs":[{"name":"tokenA","type":"address","internalType":"address"},{"name":"tokenB","type":"address","internalType":"address"},{"name":"pair","type":"address","internalType":"address"}],"outputs":[],"stateMutability":"payable"},{"type":"function","name":"swap","inputs":[{"name":"amountIn","type":"string","internalType":"string"},{"name":"amountOutMin","type":"string","internalType":"string"},{"name":"tokenIn","type":"string","internalType":"string"},{"name":"tokenOut","type":"string","internalType":"string"},{"name":"receiver","type":"string","internalType":"string"}],"outputs":[],"stateMutability":"payable"},{"type":"function","name":"translateCommand","inputs":[{"name":"callData","type":"bytes","internalType":"bytes"}],"outputs":[{"name":"intent","type":"string","internalType":"string"}],"stateMutability":"pure"},{"type":"function","name":"translateExecute","inputs":[{"name":"callData","type":"bytes","internalType":"bytes"}],"outputs":[{"name":"intent","type":"string","internalType":"string"}],"stateMutability":"view"},{"type":"function","name":"translateUserOp","inputs":[{"name":"userOp","type":"tuple","internalType":"struct IETH.PackedUserOperation","components":[{"name":"sender","type":"address","internalType":"address"},{"name":"nonce","type":"uint256","internalType":"uint256"},{"name":"initCode","type":"bytes","internalType":"bytes"},{"name":"callData","type":"bytes","internalType":"bytes"},{"name":"accountGasLimits","type":"bytes32","internalType":"bytes32"},{"name":"preVerificationGas","type":"uint256","internalType":"uint256"},{"name":"gasFees","type":"bytes32","internalType":"bytes32"},{"name":"paymasterAndData","type":"bytes","internalType":"bytes"},{"name":"signature","type":"bytes","internalType":"bytes"}]}],"outputs":[{"name":"intent","type":"string","internalType":"string"}],"stateMutability":"view"},{"type":"function","name":"whatIsTheAddressOf","inputs":[{"name":"name","type":"string","internalType":"string"}],"outputs":[{"name":"owner","type":"address","internalType":"address"},{"name":"receiver","type":"address","internalType":"address"},{"name":"node","type":"bytes32","internalType":"bytes32"}],"stateMutability":"view"},{"type":"function","name":"whatIsTheNameOf","inputs":[{"name":"user","type":"address","internalType":"address"}],"outputs":[{"name":"","type":"string","internalType":"string"}],"stateMutability":"view"},{"type":"event","name":"NameSet","inputs":[{"name":"token","type":"address","indexed":false,"internalType":"address"},{"name":"name","type":"string","indexed":false,"internalType":"string"}],"anonymous":false},{"type":"event","name":"PairSet","inputs":[{"name":"token0","type":"address","indexed":false,"internalType":"address"},{"name":"token1","type":"address","indexed":false,"internalType":"address"},{"name":"pair","type":"address","indexed":false,"internalType":"address"}],"anonymous":false},{"type":"error","name":"InsufficientSwap","inputs":[]},{"type":"error","name":"InvalidCharacter","inputs":[]},{"type":"error","name":"InvalidReceiver","inputs":[]},{"type":"error","name":"InvalidSelector","inputs":[]},{"type":"error","name":"InvalidSwap","inputs":[]},{"type":"error","name":"InvalidSyntax","inputs":[]},{"type":"error","name":"OrderExpired","inputs":[]},{"type":"error","name":"Overflow","inputs":[]},{"type":"error","name":"Reentrancy","inputs":[]},{"type":"error","name":"Unauthorized","inputs":[]}],"bytecode":{"object":"0x60806040525f5b61000e6100e2565b5181146100d35761002a6100206100e2565b600183019061015e565b5160f81c5f5b6100418361003c6100e2565b61015e565b5160f81c60ff8216146100c957600454680100000000000000008110156100b55760018101806004558110156100a15760ff9160019160045f5260205f208160051c019060f882549160031b16908587831b921b19161790550116610030565b634e487b7160e01b5f52603260045260245ffd5b634e487b7160e01b5f52604160045260245ffd5b5050600201610006565b604051615de090816101708239f35b60405190608082016001600160401b038111838210176100b5576040908152604483527f2d00020101000a010700016101620163016401650166016701680169016a016b60208401527f016c016d016e016f0170017101720173017401750176017701780179017a060090830152621a010560e81b6060830152565b9081518110156100a157016020019056fe6080604052600436101561018e575b361561017157600435609a3560601c6024355f83131580610167575b61013f5761003d60ae3560601c83614c8b565b9281330361013b576084355f1a15610116575050811561011057825b5f3881808473c02aaa39b223fe8d0a0e5c4f27ead9083c756cc25af150336014526034526fa9059cbb0000000000000000000000005f525f38604460108373c02aaa39b223fe8d0a0e5c4f27ead9083c756cc25af1505f6034525b6085355f1a6100bf57005b610107926100d2921561010957506118f5565b632e1a7d4d5f52806020525f386024601c8373c02aaa39b223fe8d0a0e5c4f27ead9083c756cc25af15060c23560601c6131ee565b005b90506118f5565b80610059565b61012f9184156101345785915b60863560601c90613187565b6100b4565b8391610123565b3838fd5b7f11157667000000000000000000000000000000000000000000000000000000005f5260045ffd5b505f81131561002a565b73c02aaa39b223fe8d0a0e5c4f27ead9083c756cc2330361013b57005b5f3560e01c80630465919714611167578063049b76c414610f9b5780631db5129714610f845780633121db1c14610d3a57806352a13e8814610c565780635615264d14610bdf578063579a8c4c14610b045780635a274d62146108e65780635cf3d346146108ae5780635fcc4500146108795780636662c9e31461086457806369454b86146108075780637489ec23146106a65780637bb41012146105a45780639c3f1e9014610504578063a35e651114610496578063bdfe7d4714610438578063bfe68676146103b1578063c47d04e214610356578063d315e54f1461033f578063df69558c14610307578063f12a64eb146102ae5763fdbfc0a60361000e5760206102a661029d366112b9565b939290926139e6565b604051908152f35b346103035760206003193601126103035760043567ffffffffffffffff8111610303576102eb6102e56102ff92369060040161119a565b90612e50565b6040519182916020835260208301906111c8565b0390f35b5f80fd5b34610303576020600319360112610303576004356005548110156103035761033060209161149f565b90549060031b1c604051908152f35b60206102a661034d366112b9565b93929092612a03565b346103035760206003193601126103035760043567ffffffffffffffff8111610303576001600160a01b03610399610394606093369060040161129b565b6125d8565b91929081604051941684521660208301526040820152f35b346103035760206003193601126103035760043567ffffffffffffffff8111610303576001600160a01b036102ff61042a6103fa6103f48495369060040161119a565b90611e85565b959497929093604051998a991689526020890152604088015216606086015260c0608086015260c08501906111c8565b9083820360a08501526111c8565b346103035760206003193601126103035760043567ffffffffffffffff8111610303576001600160a01b036020806104758194369060040161129b565b604051928184925191829101835e81015f8152030190205416604051908152f35b346103035760406003193601126103035760043567ffffffffffffffff8111610303576104c790369060040161119a565b906024359067ffffffffffffffff8211610303576101206003198336030112610303576020926104fa9260040191611e30565b6040519015158152f35b34610303576020600319360112610303576004355f52600260205261010060405f206001600160a01b03815416906001600160a01b0360018201541690600281015460038201549060056001600160a01b036004850154169301549360405195865260208601526040850152606084015260808301526001600160a01b03811660a083015265ffffffffffff8160a01c1660c083015260d01c60e0820152f35b6060600319360112610303576105b8611364565b6105c061137a565b906044356001600160a01b0381168091036103035782908273da000000000000d2885f108500803dfbaab2f2aa330361013b577f0664a178e530b983dd853e440d433bbd0e0bb8991c3e7293c2360df7dc79751d94846001600160a01b03606096166001600160a01b03831610610694575b50506001600160a01b0380911692835f52600360205260405f208282165f5260205260405f20837fffffffffffffffffffffffff00000000000000000000000000000000000000008254161790556040519384521660208301526040820152a1005b935090506001600160a01b0380610632565b34610303576020600319360112610303576004353068929eee149b4bd2126854146107fa573068929eee149b4bd2126855805f52600260205260405f206001600160a01b03604051916106f8836111ed565b81815416835281600182015416602084015260028101549360408401948552600382015460608501526005836004840154169260808601938452015483811660a086015265ffffffffffff8160a01c1660c086015260d01c60e08501525f52600260205261078660405f2060055f918281558260018201558260028201558260038201558260048201550155565b511633036107d257516001600160a01b031673eeeeeeeeeeeeeeeeeeeeeeeeeeeeeeeeeeeeeeee146107c1575b3868929eee149b4bd2126855005b6107cc9051336131ee565b806107b3565b7f82b42900000000000000000000000000000000000000000000000000000000005f5260045ffd5b63ab143c065f526004601cfd5b3461030357604060031936011261030357610820611364565b6001600160a01b0361083061137a565b91165f5260036020526001600160a01b0360405f2091165f5260205260206001600160a01b0360405f205416604051908152f35b610107610870366112b9565b93929092611921565b60206003193601126103035760043567ffffffffffffffff8111610303576108a861010791369060040161119a565b90611654565b34610303576020600319360112610303576001600160a01b036108cf611364565b165f5260016020526102ff6102eb60405f206113e1565b34610303576020600319360112610303576108ff611364565b6001600160a01b03604051917fbffbe61c00000000000000000000000000000000000000000000000000000000835216600482015260208160248173a58e81fe9b61b5c3fe2afd33cf304c454abfc7cb5afa908115610a93575f91610ad2575b506040517f0178b8bf0000000000000000000000000000000000000000000000000000000081528160048201526020816024816e0c2e074ec69a0dfb2997ba6c7d2e1e5afa8015610a93576001600160a01b03925f928392610a9e575b5060249060405194859384927f691f34310000000000000000000000000000000000000000000000000000000084526004840152165afa8015610a93575f90610a18575b6102ff906040519182916020835260208301906111c8565b503d805f833e610a288183611226565b8101906020818303126103035780519067ffffffffffffffff821161030357019080601f83011215610303578151610a5f81611249565b91610a6d6040519384611226565b81835260208285010111610303576020815f92826102ff96018386015e83010152610a00565b6040513d5f823e3d90fd5b6024919250610ac49060203d602011610acb575b610abc8183611226565b810190611635565b91906109bc565b503d610ab2565b90506020813d602011610afc575b81610aed60209383611226565b8101031261030357518161095f565b3d9150610ae0565b346103035760206003193601126103035760043567ffffffffffffffff8111610303578060040161012060031983360301126103035760646102ff9201907fb61d27f6000000000000000000000000000000000000000000000000000000007fffffffff00000000000000000000000000000000000000000000000000000000610b8e84846114d3565b90358281169160048110610bca575b50501603610bb2576102eb916102e5916114d3565b610bc591610bbf916114d3565b906114b7565b6102eb565b839250829060040360031b1b16168680610b9d565b60606003193601126103035760043567ffffffffffffffff811161030357610c0b90369060040161129b565b60243567ffffffffffffffff811161030357610c2b90369060040161129b565b906044359167ffffffffffffffff831161030357610c5061010793369060040161129b565b91611546565b60206003193601126103035760043567ffffffffffffffff811161030357366023820112156103035780600401359067ffffffffffffffff82116103035760248101903660248460051b83010111610303575f5b838103610cb357005b83811015610d0d57610cd06108a860248360051b850101856114d3565b5f198114610ce057600101610caa565b7f4e487b71000000000000000000000000000000000000000000000000000000005f52601160045260245ffd5b7f4e487b71000000000000000000000000000000000000000000000000000000005f52603260045260245ffd5b604060031936011261030357610d4e611364565b60243567ffffffffffffffff811161030357610d6e90369060040161119a565b9073da000000000000d2885f108500803dfbaab2f2aa330361013b57610da1610da6916001600160a01b03933691611265565b614080565b911690815f52600160205260405f209181519267ffffffffffffffff8411610f5757610dd28154611390565b601f8111610f12575b50602093601f8111600114610e9157807fa4cea56cd77acc2291276688ddfb9e3144c5dc056ada99eed3cd0460fbeda175955f91610e86575b505f198260011b9260031b1c19161790555b604051602081845180838701835e81015f815203019020817fffffffffffffffffffffffff0000000000000000000000000000000000000000825416179055610e8160405192839283526040602084015260408301906111c8565b0390a1005b905084015186610e14565b601f19811694825f52805f20955f5b818110610efa57509582916001937fa4cea56cd77acc2291276688ddfb9e3144c5dc056ada99eed3cd0460fbeda1759810610ee2575b5050811b019055610e26565b8601515f1960f88460031b161c191690558680610ed6565b86830151885560019097019660209283019201610ea0565b815f5260205f20601f860160051c81019160208710610f4d575b601f0160051c01905b818110610f425750610ddb565b5f8155600101610f35565b9091508190610f2c565b7f4e487b71000000000000000000000000000000000000000000000000000000005f52604160045260245ffd5b60206102a6610f92366112b9565b939290926132ad565b6020600319360112610303576004353068929eee149b4bd2126854146107fa573068929eee149b4bd2126855805f52600260205260405f20604051610fdf816111ed565b6001600160a01b0382541681526001600160a01b0360018301541660208201908152600283015492604083019384526003810154936060840194855265ffffffffffff60056001600160a01b036004850154169360808701948552015460a08601976001600160a01b0382168952828260a01c1660c088015260e087019160d01c82525f52600260205261109360405f2060055f918281558260018201558260028201558260038201558260048201550155565b5116421161113f576001600160a01b038094511673eeeeeeeeeeeeeeeeeeeeeeeeeeeeeeeeeeeeeeee81145f1461112957506110d1915051336131ee565b511673eeeeeeeeeeeeeeeeeeeeeeeeeeeeeeeeeeeeeeee810361110b5750513403610303576107b3906001600160a01b03349151166131ee565b906001600160a01b036111249351169051913390613187565b6107b3565b8461113a9351169151913391613187565b6110d1565b7fc56873ba000000000000000000000000000000000000000000000000000000005f5260045ffd5b346103035760206003193601126103035760043567ffffffffffffffff8111610303576102eb610bbf6102ff9236906004015b9181601f840112156103035782359167ffffffffffffffff8311610303576020838186019501011161030357565b90601f19601f602080948051918291828752018686015e5f8582860101520116010190565b610100810190811067ffffffffffffffff821117610f5757604052565b6040810190811067ffffffffffffffff821117610f5757604052565b90601f601f19910116810190811067ffffffffffffffff821117610f5757604052565b67ffffffffffffffff8111610f5757601f01601f191660200190565b92919261127182611249565b9161127f6040519384611226565b829481845281830111610303578281602093845f960137010152565b9080601f83011215610303578160206112b693359101611265565b90565b60a06003198201126103035760043567ffffffffffffffff811161030357816112e49160040161129b565b9160243567ffffffffffffffff811161030357826113049160040161129b565b9160443567ffffffffffffffff811161030357816113249160040161129b565b9160643567ffffffffffffffff811161030357826113449160040161129b565b916084359067ffffffffffffffff8211610303576112b69160040161129b565b600435906001600160a01b038216820361030357565b602435906001600160a01b038216820361030357565b90600182811c921680156113d7575b60208310146113aa57565b7f4e487b71000000000000000000000000000000000000000000000000000000005f52602260045260245ffd5b91607f169161139f565b9060405191825f8254926113f484611390565b808452936001811690811561145f575060011461141b575b5061141992500383611226565b565b90505f9291925260205f20905f915b818310611443575050906020611419928201015f61140c565b602091935080600191548385890101520191019091849261142a565b602093506114199592507fffffffffffffffffffffffffffffffffffffffffffffffffffffffffffffff0091501682840152151560051b8201015f61140c565b600554811015610d0d5760055f5260205f2001905f90565b9080600411610303576112b69160046003193693019101611265565b9035907fffffffffffffffffffffffffffffffffffffffffffffffffffffffffffffffe181360301821215610303570180359067ffffffffffffffff82116103035760200191813603831361030357565b602081519101519060208110611538575090565b5f199060200360031b1b1690565b91905f92602a8351145f1461161a5761155e8361442a565b925b6001600160a01b038416156115e4575b5061158f9161157f84926125d8565b5095905080156115d157906145a3565b906001600160a01b03811673eeeeeeeeeeeeeeeeeeeeeeeeeeeeeeeeeeeeeeee036115c5575080340361030357611419916131ee565b91611419923390613187565b5060ff6115dd83614544565b16906145a3565b61157f9350916001600160a01b0360208061158f95604051928184925191829101835e81015f8152030190205416935091611570565b925061162d61162883611524565b6140cd565b939092611560565b9081602091031261030357516001600160a01b03811681036103035790565b610da190611663923691611265565b61166c816148ab565b7f73656e6400000000000000000000000000000000000000000000000000000000811480156118cc575b80156118a3575b801561187a575b156116b65750610c5061141991614c1f565b7f737761700000000000000000000000000000000000000000000000000000000081148015611851575b8015611828575b80156117ff575b15611700575061087061141991614971565b7f6c6f636b00000000000000000000000000000000000000000000000000000000811480156117d6575b156117425761173b61029d83614b8e565b5f5260205ff35b7f657363726f77000000000000000000000000000000000000000000000000000081036117755761173b610f9283614b8e565b7f6f72646572000000000000000000000000000000000000000000000000000000036117ae576117a761173b91614971565b9391612a03565b7f1e3382cb000000000000000000000000000000000000000000000000000000005f5260045ffd5b507f6c6f636b75700000000000000000000000000000000000000000000000000000811461172a565b507f7374616b6500000000000000000000000000000000000000000000000000000081146116ee565b507f65786368616e676500000000000000000000000000000000000000000000000081146116e7565b507f73656c6c0000000000000000000000000000000000000000000000000000000081146116e0565b507f6772616e7400000000000000000000000000000000000000000000000000000081146116a4565b507f7061790000000000000000000000000000000000000000000000000000000000811461169d565b507f7472616e736665720000000000000000000000000000000000000000000000008114611696565b7f80000000000000000000000000000000000000000000000000000000000000008114610ce0575f0390565b91939260405160a0810181811067ffffffffffffffff821117610f57576040525f81525f602082015260408101945f865260608201945f865260808301945f86525f945f99602a8151145f14611e11576001600160a01b036119828261442a565b168a525b6001600160a01b038a511615611de5575b508051602a03611dc6576001600160a01b036119b28261442a565b1688525b6001600160a01b0388511615611d9a575b505f988151611d57575b5050805115938415611cf85750507f8000000000000000000000000000000000000000000000000000000000000000875b8086521015611cd05785859173eeeeeeeeeeeeeeeeeeeeeeeeeeeeeeeeeeeeeeee6001600160a01b038351161480808652611cb7575b94611b92604097956001600160a01b03955f9587957fffffffffffffffffffffffffffffffffffffffff0000000000000000000000009a611c9b575b73eeeeeeeeeeeeeeeeeeeeeeeeeeeeeeeeeeeeeeee8784511614806020860152611c7f575b8051158814611c665750611ab88a92878033945b511691511690614c8b565b9d8e9b919a6020860151158a14611c5f5783975b158a14611c4f57519b5b8914611c3357816401000276a49e5b602087511515970151151592519051928f519760f81b602089015260f81b60218801523360601b602288015260601b16603686015260601b16604a84015260601b16605e82015260528152611b3b607282611226565b8389519a8b998a9889967f128acb080000000000000000000000000000000000000000000000000000000088521660048701528d15156024870152604486015216606484015260a0608484015260a48301906111c8565b0393165af1908115610a93575f905f92611bf9575b5083611bb4575b50505050565b611bc3921561010957506118f5565b10611bd1575f808080611bae565b7fc1328a53000000000000000000000000000000000000000000000000000000005f5260045ffd5b9150506040813d604011611c2b575b81611c1560409383611226565b810103126103035760208151910151905f611ba7565b3d9150611c08565b8173fffd8963efd1fc6a506488495d951d5263988d259e611ae5565b611c5990516118f5565b9b611ad6565b3097611acc565b8a928780611c76611ab8946125d8565b50905094611aad565b73c02aaa39b223fe8d0a0e5c4f27ead9083c756cc28352611a99565b73c02aaa39b223fe8d0a0e5c4f27ead9083c756cc28252611a74565b9250948093915051340361030357919386908692611a38565b7f35278d12000000000000000000000000000000000000000000000000000000005f5260045ffd5b7f800000000000000000000000000000000000000000000000000000000000000091611d36918015611d3b575b6001600160a01b038a5116916145a3565b611a02565b5060ff611d516001600160a01b038b5116614544565b16611d25565b919850611d76918015611d7e575b6001600160a01b03885116916145a3565b965f806119d1565b5060ff611d946001600160a01b03895116614544565b16611d65565b60405181516001600160a01b0392602091839181908401835e81015f815203019020541687525f6119c7565b6001600160a01b039950611ddc61162882611524565b9a1688526119b6565b60405181516001600160a01b0392602091839181908401835e81015f815203019020541689525f611997565b6001600160a01b039650611e2761162882611524565b97168a52611986565b90611e3a91611e85565b94505050505080519060608301611e5181856114d3565b90508303611e7d57611e72926020611e6b930120936114d3565b3691611265565b602081519101201490565b505050505f90565b5f91611e99610da160609384933691611265565b91611ea3836148ab565b7f73656e6400000000000000000000000000000000000000000000000000000000811480156125af575b8015612586575b801561255d575b1561208257505050611eec90614c1f565b80515f949392606091602a0361206c57611f058361442a565b925b6001600160a01b0384161561203a575b5082611f5691611f4673eeeeeeeeeeeeeeeeeeeeeeeeeeeeeeeeeeeeeeee6001600160a01b03841614966125d8565b5098905080156115d157906145a3565b928015611fe5575b8015611fde5785905b15611fd857835b6001600160a01b03604051927fb61d27f6000000000000000000000000000000000000000000000000000000006020850152166024830152604482015260606064820152611fd181611fc360848201856111c8565b03601f198101835282611226565b9091929495565b5f611f6e565b8290611f67565b90506040517fa9059cbb0000000000000000000000000000000000000000000000000000000060208201526001600160a01b038616602482015283604482015260448152612034606482611226565b90611f5e565b611f569193506020806001600160a01b0392604051928184925191829101835e81015f81520301902054169290611f17565b945061207a61162883611524565b959092611f07565b90919493507f737761700000000000000000000000000000000000000000000000000000000081148015612534575b801561250b575b80156124e2575b156121235750506120d26120db91614971565b93929092614ff0565b94919590959293947fffffffffffffffffffffffffffffffffffffffff0000000000000000000000006040519160601b16602082015260148152612120603482611226565b91565b7f6c6f636b000000000000000000000000000000000000000000000000000000008195939294951480156124b9575b8015612490575b15612414575061216890614b8e565b909395925f959295505f96602a8751145f146123fe576121878761442a565b965b6001600160a01b038816156123be575b506121be876121ca936121ae6121c4946125d8565b509b905080156115d157906145a3565b95615667565b91611524565b7f6d696e757465000000000000000000000000000000000000000000000000000081148015612395575b156122065750603c025b420193929495565b7f64617900000000000000000000000000000000000000000000000000000000008114801561236c575b15612240575062015180026121fe565b7f7765656b0000000000000000000000000000000000000000000000000000000081148015612343575b1561227a575062093a80026121fe565b7f6d6f6e74680000000000000000000000000000000000000000000000000000008114801561231a575b156122b457506224ea00026121fe565b7f796561720000000000000000000000000000000000000000000000000000000081149081156122f0575b50156117ae576301dfe200026121fe565b7f79656172730000000000000000000000000000000000000000000000000000009150145f6122df565b507f6d6f6e746873000000000000000000000000000000000000000000000000000081146122a4565b507f7765656b73000000000000000000000000000000000000000000000000000000811461226a565b507f64617973000000000000000000000000000000000000000000000000000000008114612230565b507f6d696e757465730000000000000000000000000000000000000000000000000081146121f4565b6121ae97506121c4916121ca936001600160a01b036020806121be95604051928184925191829101835e81015f8152030190205416995093509150612199565b965061240c61162887611524565b979096612189565b909392907f6f72646572000000000000000000000000000000000000000000000000000000036117ae5761246b6120d27fffffffffffffffffffffffffffffffffffffffff00000000000000000000000095614971565b604051951b909716602085015260148452919490939192909190612120603482611226565b507f657363726f7700000000000000000000000000000000000000000000000000008114612159565b507f6c6f636b757000000000000000000000000000000000000000000000000000008114612152565b507f7374616b6500000000000000000000000000000000000000000000000000000081146120bf565b507f65786368616e676500000000000000000000000000000000000000000000000081146120b8565b507f73656c6c0000000000000000000000000000000000000000000000000000000081146120b1565b507f6772616e740000000000000000000000000000000000000000000000000000008114611edb565b507f70617900000000000000000000000000000000000000000000000000000000008114611ed4565b507f7472616e736665720000000000000000000000000000000000000000000000008114611ecd565b80515f92918391602a81036125f157506121209061442a565b60209394506126619250600491818592604051968793018484015e81017f2e657468000000000000000000000000000000000000000000000000000000008382015203017fffffffffffffffffffffffffffffffffffffffffffffffffffffffffffffffe4810184520182611226565b5f9080518081600454905b6128d2575090806020920392010120604051906020820192835260408201526040815261269a606082611226565b51902090604051917f02571be30000000000000000000000000000000000000000000000000000000083528060048401526020836024816e0c2e074ec69a0dfb2997ba6c7d2e1e5afa928315610a93575f936128b1575b5073d4416b13d2b3a9abae7acd5d6c2bbdbe256864016001600160a01b03841614612832575b604051917f0178b8bf0000000000000000000000000000000000000000000000000000000083528160048401526020836024816e0c2e074ec69a0dfb2997ba6c7d2e1e5afa928315610a93576001600160a01b03936020915f91612815575b506024604051809681937f3b3b57de000000000000000000000000000000000000000000000000000000008352876004840152165afa928315610a93575f936127f4575b506001600160a01b038316156127cc57565b7f1e4ec46b000000000000000000000000000000000000000000000000000000005f5260045ffd5b61280e91935060203d602011610acb57610abc8183611226565b915f6127ba565b61282c9150823d8411610acb57610abc8183611226565b5f612776565b91506040517f6352211e00000000000000000000000000000000000000000000000000000000815282600482015260208160248173d4416b13d2b3a9abae7acd5d6c2bbdbe256864015afa908115610a93575f91612892575b5091612717565b6128ab915060203d602011610acb57610abc8183611226565b5f61288b565b6128cb91935060203d602011610acb57610abc8183611226565b915f6126f1565b915f198101906128e28286614419565b517fff0000000000000000000000000000000000000000000000000000000000000081167f2e0000000000000000000000000000000000000000000000000000000000000081146129c9577f8000000000000000000000000000000000000000000000000000000000000000111561030357848160f81c1015610d0d5760ff9060045f5260f86107f88260fd1c7f8a35acfbc15ff81a39ae7d344fd709f28e8600b4aa8c65c6b64bfe7fe36bd19b01549260f51c16161c168015610303575f1992600182116129b7575b50505b01918261266c565b6129c19087614419565b535f806129ac565b50509194825f199296036020848701012060405190602082019283526040820152604081526129f9606082611226565b51902094916129af565b90923068929eee149b4bd2126854146107fa573068929eee149b4bd2126855604051612a2e816111ed565b5f815260208101955f8752604082015f815260608301915f8352612b0960808501955f875260a08601995f8b5260c08701985f8a5260e088019a5f8c528d5f905f93602a8151145f14612e0b576001600160a01b03612a8c8261442a565b168c525b6001600160a01b038c511615612ddf575b508451602a03612dbc57846001600160a01b03612ac1612aef969761442a565b1682525b6001600160a01b0382511615612d8f575b50508015611d3b576001600160a01b038a5116916145a3565b85528015612d73575b6001600160a01b038c5116916145a3565b835273eeeeeeeeeeeeeeeeeeeeeeeeeeeeeeeeeeeeeeee6001600160a01b0385511614612d5f575b6001600160a01b039460059386959386933384528051155f14612d4d575083335b168b5265ffffffffffff4216895265ffffffffffff62093a804201168a52838c8c8260405191816020840194818c511686525116604084015285516060840152865160808401528188511660a0840152511660c082015265ffffffffffff8c511660e082015265ffffffffffff8d51166101008201526101008152612bd961012082611226565b5190209c8d5f526002602052818060405f20985116167fffffffffffffffffffffffff00000000000000000000000000000000000000008854161787555116846001870191167fffffffffffffffffffffffff00000000000000000000000000000000000000008254161790555160028501555160038401555116836004830191167fffffffffffffffffffffffff000000000000000000000000000000000000000082541617905501945116167fffffffffffffffffffffffff000000000000000000000000000000000000000084541617835551906001600160a01b0379ffffffffffff00000000000000000000000000000000000000007fffffffffffff00000000000000000000000000000000000000000000000000008554935160d01b169360a01b1691161717905560055468010000000000000000811015610f5757806001612d2b920160055561149f565b81549060031b905f1984831b921b1916179055903868929eee149b4bd2126855565b612d5785916125d8565b509050612b52565b819293915134036103035792919092612b31565b5060ff612d896001600160a01b038d5116614544565b16612af8565b60405181516001600160a01b0392602091839181908401835e81015f815203019020541690528e5f612ad6565b612aef935084612dd66116286001600160a01b0397611524565b96168252612ac5565b60405181516001600160a01b0392602091839181908401835e81015f81520301902054168b525f612aa1565b6001600160a01b039250612e2161162882611524565b93168c52612a90565b91908260409103126103035781356001600160a01b038116810361030357916020013590565b90806044116103035781612e7260446001600160a01b03940160048301612e2a565b931692806130e85750816088119283610303577fffffffff00000000000000000000000000000000000000000000000000000000608483013516937fa9059cbb00000000000000000000000000000000000000000000000000000000851494851590816130ba575b5061309257610303576020936112b693600693612ef6846153ce565b929094859380965115613077575b15613038575b5087928380612f7d6001600160a01b03612f76612f3160019a986088869982019101612e2a565b9b909815612ffb57604051612f47604082611226565b600581527f73656e6420000000000000000000000000000000000000000000000000000000868201529b61521b565b96166152e3565b946040519b898d9a5191829101848c015e8901908282015f8152815193849201905e010190600160fd1b82528051928391018683015e01907f20746f203078000000000000000000000000000000000000000000000000000084830152805192839101600783015e01015f838201520301601f198101835282611226565b604051613009604082611226565b600881527f617070726f766520000000000000000000000000000000000000000000000000868201529b61521b565b8880809592819498506001600160a01b03612f76612f3160019a98608860ff613063612f7d97614544565b169d995050989a5050505050505092612f0a565b9350805f526001895261308c60405f206113e1565b93612f04565b7f7352d91c000000000000000000000000000000000000000000000000000000005f5260045ffd5b9150507f095ea7b3000000000000000000000000000000000000000000000000000000005f9114155f612eda565b6112b69250600a915092602560206131096131038297615120565b936152e3565b6040519687947f73656e6420000000000000000000000000000000000000000000000000000000828701528051918291018587015e8401907f2045544820746f2030780000000000000000000000000000000000000000000084830152805192839101602f83015e01015f838201520301601f198101835282611226565b916040519360605260405260601b602c526f23b872dd000000000000000000000000600c5260205f6064601c82855af1908160015f511416156131d0575b50505f606052604052565b3b153d1710156131e1575f806131c5565b637939f4245f526004601cfd5b5f80809338935af1156131fd57565b63b12d13eb5f526004601cfd5b9695949161325a936001600160a01b0380928160c09895168b521660208a01521660408801526d1d8a2e7bf6bc369525a2654aa2986060880152608087015260e060a087015260e08601906111c8565b930152565b95949390926001600160a01b0361325a938160c0965f8b521660208a01521660408801526d1d8a2e7bf6bc369525a2654aa2986060880152608087015260e060a087015260e08601906111c8565b929493905f935f90602a8551145f146139d0576132c98561442a565b925b6001600160a01b038416156139a7575b6132e4826125d8565b50939050848115613991576132fa915b836145a3565b946133048a615667565b61330d82611524565b7f6d696e757465000000000000000000000000000000000000000000000000000081148015613968575b1561378c5750603c810290808204603c1490151715610ce057945b6001600160a01b03811673eeeeeeeeeeeeeeeeeeeeeeeeeeeeeeeeeeeeeeee0361357857508534036135745787989986979850895f1461356d57845b8a15613567575033935b604051998a94602086017f6c6f636b00000000000000000000000000000000000000000000000000000000905260248601600160fd1b905280516020819201602588015e850160258101600160fd1b905281516020819301602683015e0160250160018101600160fd1b9052600281017f666f720000000000000000000000000000000000000000000000000000000000905260058101600160fd1b905281516020819301600683015e0160010160058101600160fd1b9052600681017f666f720000000000000000000000000000000000000000000000000000000000905260098101600160fd1b905281516020819301600a83015e0160050160058101600160fd1b905281516020819301600683015e0160050188600182015203600101601f19810187526134c99087611226565b60405195869485947f8e3de7ab00000000000000000000000000000000000000000000000000000000865242019260048601946135059561325f565b03815a936d44992cb97cb1a57a32e271c04c11602095f191821561355b579161352c575090565b90506020813d602011613553575b8161354760209383611226565b81010312610303575190565b3d915061353a565b604051903d90823e3d90fd5b93613398565b339461338e565b8780fd5b94959697509161358f879a9294999a303388613187565b6d44992cb97cb1a57a32e271c04c11601452866034526f095ea7b30000000000000000000000005f5260205f6044601082895af18060015f5114161561376e575b505f603452604051978894602086017f6c6f636b00000000000000000000000000000000000000000000000000000000905260248601600160fd1b905280516020819201602588015e850160258101600160fd1b905281516020819301602683015e0160250160018101600160fd1b9052600281017f666f720000000000000000000000000000000000000000000000000000000000905260058101600160fd1b905281516020819301600683015e0160010160058101600160fd1b9052600681017f666f720000000000000000000000000000000000000000000000000000000000905260098101600160fd1b905281516020819301600a83015e0160050160058101600160fd1b905281516020819301600683015e01600501600181015f905203600101601f19810185526137079085611226565b604051948594859485947f8e3de7ab0000000000000000000000000000000000000000000000000000000086524201923360048701956137469661320a565b035a925f6d44992cb97cb1a57a32e271c04c11602095f1908115610a93575f9161352c575090565b3d863b1517101561377f575f6135d0565b633e3f8f735f526004601cfd5b7f64617900000000000000000000000000000000000000000000000000000000008114801561393f575b156137d9575062015180810290808204620151801490151715610ce05794613352565b7f7765656b0000000000000000000000000000000000000000000000000000000081148015613916575b15613826575062093a8081029080820462093a801490151715610ce05794613352565b7f6d6f6e7468000000000000000000000000000000000000000000000000000000811480156138ed575b1561387357506224ea008102908082046224ea001490151715610ce05794613352565b7f796561720000000000000000000000000000000000000000000000000000000081149081156138c3575b50156117ae576301dfe2008102908082046301dfe2001490151715610ce05794613352565b7f79656172730000000000000000000000000000000000000000000000000000009150145f61389e565b507f6d6f6e74687300000000000000000000000000000000000000000000000000008114613850565b507f7765656b730000000000000000000000000000000000000000000000000000008114613803565b507f646179730000000000000000000000000000000000000000000000000000000081146137b6565b507f6d696e75746573000000000000000000000000000000000000000000000000008114613337565b6132fa915060ff6139a182614544565b166132f4565b92506001600160a01b03604051602081885180838b01835e81015f8152030190205416926132db565b90506139de61162885611524565b9190926132cb565b92905f94602a8451145f1461406a576139fe8461442a565b925b6001600160a01b03841615614041575b613a19866125d8565b5097905084811561402b57613a2f915b856145a3565b95613a3982615667565b613a4284611524565b7f6d696e757465000000000000000000000000000000000000000000000000000081148015614002575b15613e265750603c810290808204603c1490151715610ce057945b6001600160a01b03811673eeeeeeeeeeeeeeeeeeeeeeeeeeeeeeeeeeeeeeee03613c4b575086340361030357604051958694602086017f6c6f636b00000000000000000000000000000000000000000000000000000000905260248601600160fd1b905280516020819201602588015e850160258101600160fd1b905281516020819301602683015e0160250160018101600160fd1b9052600281017f666f720000000000000000000000000000000000000000000000000000000000905260058101600160fd1b905281516020819301600683015e0160010160058101600160fd1b9052600681017f666f720000000000000000000000000000000000000000000000000000000000905260098101600160fd1b905281516020819301600a83015e0160050160058101600160fd1b905281516020819301600683015e01600501600181015f905203600101601f1981018352613be59083611226565b60405193849283927f8e3de7ab00000000000000000000000000000000000000000000000000000000845242019085336004860194613c239561325f565b03815a936d44992cb97cb1a57a32e271c04c11602095f1908115610a93575f9161352c575090565b93929190613c5d889798303388613187565b6d44992cb97cb1a57a32e271c04c11601452866034526f095ea7b30000000000000000000000005f5260205f6044601082895af18060015f51141615613e15575b505f603452604051978894602086017f6c6f636b00000000000000000000000000000000000000000000000000000000905260248601600160fd1b905280516020819201602588015e850160258101600160fd1b905281516020819301602683015e0160250160018101600160fd1b9052600281017f666f720000000000000000000000000000000000000000000000000000000000905260058101600160fd1b905281516020819301600683015e0160010160058101600160fd1b9052600681017f666f720000000000000000000000000000000000000000000000000000000000905260098101600160fd1b905281516020819301600a83015e0160050160058101600160fd1b905281516020819301600683015e01600501600181015f905203600101601f1981018552613dd59085611226565b604051948594859485947f8e3de7ab000000000000000000000000000000000000000000000000000000008652420192339060048701956137469661320a565b3d863b1517101561377f575f613c9e565b7f646179000000000000000000000000000000000000000000000000000000000081148015613fd9575b15613e73575062015180810290808204620151801490151715610ce05794613a87565b7f7765656b0000000000000000000000000000000000000000000000000000000081148015613fb0575b15613ec0575062093a8081029080820462093a801490151715610ce05794613a87565b7f6d6f6e746800000000000000000000000000000000000000000000000000000081148015613f87575b15613f0d57506224ea008102908082046224ea001490151715610ce05794613a87565b7f79656172000000000000000000000000000000000000000000000000000000008114908115613f5d575b50156117ae576301dfe2008102908082046301dfe2001490151715610ce05794613a87565b7f79656172730000000000000000000000000000000000000000000000000000009150145f613f38565b507f6d6f6e74687300000000000000000000000000000000000000000000000000008114613eea565b507f7765656b730000000000000000000000000000000000000000000000000000008114613e9d565b507f64617973000000000000000000000000000000000000000000000000000000008114613e50565b507f6d696e75746573000000000000000000000000000000000000000000000000008114613a6c565b613a2f915060ff61403b82614544565b16613a29565b92506001600160a01b03604051602081875180838a01835e81015f815203019020541692613a10565b945061407861162884611524565b959092613a00565b90815191604051835b5f19810190601f8185015160ff1660206bffffffc00000000000000000821c161891840101538061408957505050604080519280845283015f602082015201604052565b5f915f917f6574680000000000000000000000000000000000000000000000000000000000811480156143f0575b6143d2577f757364630000000000000000000000000000000000000000000000000000000081146143b4577f75736474000000000000000000000000000000000000000000000000000000008114801561438b575b61436d577f6461690000000000000000000000000000000000000000000000000000000000811461434f577f77657468000000000000000000000000000000000000000000000000000000008114614331577f776274630000000000000000000000000000000000000000000000000000000081148015614308575b80156142df575b6142c1577f737465746800000000000000000000000000000000000000000000000000000081148015614298575b801561426f575b614251577f72657468000000000000000000000000000000000000000000000000000000001461423457565b73ae78736cd615f374d3085123a210448e74fc6393925060129150565b50737f39c581f595b53c5cb19bd0b3f8da6c935e2ca0925060129150565b507f6c69646f000000000000000000000000000000000000000000000000000000008114614208565b507f77737465746800000000000000000000000000000000000000000000000000008114614201565b50732260fac5e5542a773aa44fbcfedf7c193bc2c599925060089150565b507f626974636f696e0000000000000000000000000000000000000000000000000081146141d3565b507f627463000000000000000000000000000000000000000000000000000000000081146141cc565b5073c02aaa39b223fe8d0a0e5c4f27ead9083c756cc2925060129150565b50736b175474e89094c44da98b954eedeac495271d0f925060129150565b5073dac17f958d2ee523a2206206994597c13d831ec7925060069150565b507f74657468657200000000000000000000000000000000000000000000000000008114614150565b5073a0b86991c6218b36c1d19d4a2e9eb0ce3606eb48925060069150565b5073eeeeeeeeeeeeeeeeeeeeeeeeeeeeeeeeeeeeeeee925060129150565b507f657468657200000000000000000000000000000000000000000000000000000081146140fb565b908151811015610d0d570160200190565b602a8151036117ae575f6002915b602a830361444f57506001600160a01b0391501690565b9060041b61445d8383614419565b5160f81c90603082101580614539575b156144a55760ff7fffffffffffffffffffffffffffffffffffffffffffffffffffffffffffffffd0600193011601925b019190614438565b60418210158061452e575b156144e45760ff7fffffffffffffffffffffffffffffffffffffffffffffffffffffffffffffffc96001930116019261449d565b606182101580614523575b156117ae5760ff7fffffffffffffffffffffffffffffffffffffffffffffffffffffffffffffffa96001930116019261449d565b5060668211156144ef565b5060468211156144b0565b50603982111561446d565b60208060ff9263313ce56760045260045f52815f5191620186a0fa601f3d1116602051021690565b8115614576570490565b7f4e487b71000000000000000000000000000000000000000000000000000000005f52601260045260245ffd5b92915f6145af85611524565b7f616c6c00000000000000000000000000000000000000000000000000000000008114908115614881575b50614845578451945f905f905f975f5b81811061467c575b50505090155f1461465c575082600a0a02935b61460d575050565b91926112b6926001600160a01b03811673eeeeeeeeeeeeeeeeeeeeeeeeeeeeeeeeeeeeeeee0361464b575033313401915b600a0a606402910261456c565b6146569033906156f0565b9161463e565b83819692961061466d575b50614605565b8303600a0a909402935f614667565b6146868184614419565b517fff0000000000000000000000000000000000000000000000000000000000000081167f30000000000000000000000000000000000000000000000000000000000000008110158061481b575b1561473257508596600a7fffffffffffffffffffffffffffffffffffffffffffffffffffffffffffffffd09260f89897981c910201019561471d575b6001905b019392936145ea565b936001019387851115614710579392936145f2565b90507f2e0000000000000000000000000000000000000000000000000000000000000081969295961480614813575b1561477157505060018093614714565b7f2500000000000000000000000000000000000000000000000000000000000000819b92959b1480614807575b156147ae57505060018099614714565b9099907fe000000000000000000000000000000000000000000000000000000000000000016147df57600190614714565b7f312a9f56000000000000000000000000000000000000000000000000000000005f5260045ffd5b505f1983018b1461479e565b508115614761565b507f39000000000000000000000000000000000000000000000000000000000000008111156146d4565b50919250506001600160a01b03811673eeeeeeeeeeeeeeeeeeeeeeeeeeeeeeeeeeeeeeee0361487657503331340190565b6112b69033906156f0565b7f31303025000000000000000000000000000000000000000000000000000000009150145f6145da565b602001516020905f5b602081106148cd575b50905f199060200360031b1b1690565b81811a602081159114176148e3576001016148b4565b91505f196148bd565b805160011015610d0d5760400190565b805160041015610d0d5760a00190565b805160021015610d0d5760600190565b805160051015610d0d5760c00190565b805160071015610d0d576101000190565b805160031015610d0d5760800190565b805160061015610d0d5760e00190565b8051821015610d0d5760209160051b010190565b61497a81615731565b805160058103614a475750906149a161499c614995846148ec565b518361589a565b615905565b156149fc576149d26149b5614995846148ec565b916149cb6149c56149958661490c565b946148fc565b519061589a565b90926040516149e2602082611226565b5f81529291906040516149f6602082611226565b5f815290565b91614a23614a13614a0c8461493d565b518561589a565b936149cb6149c5614995866148ec565b90604051614a32602082611226565b5f8152939291906040516149f6602082611226565b60068103614aa557509091614a65614a5e836148ec565b518461589a565b90614a92614a7c614a75856148fc565b518661589a565b946149cb614a8c6149958761490c565b9561491c565b91939291906040516149f6602082611226565b60078103614b415750614abd61499c614a5e836148ec565b15614b0c57614ace614995826148ec565b614af3614add614a0c8461490c565b936149cb614aed614995866148fc565b9461494d565b9093604051614b03602082611226565b5f815293929190565b614b186149958261493d565b92614b28614add614a0c846148ec565b90604051614b37602082611226565b5f81529493929190565b6008036117ae57614b54614995826148ec565b614b60614a5e836148fc565b93614b86614b70614a758561490c565b946149cb614b806149958761491c565b9561492c565b919493929190565b614b9781615731565b6007815114614be15780516008036117ae57614bb5614995826148fc565b614bc1614a5e836148ec565b93614b86614bd1614a758561490c565b946149cb614b806149958761494d565b614bed614995826148ec565b614bf9614a5e8361490c565b93614b86614c09614a758561493d565b946149cb614c196149958761491c565b9561494d565b614c2881615731565b916004835114614c665782516005036117ae57614c60614c4a614a5e856148fc565b926149cb614c5a614995876148ec565b9561490c565b91929190565b614c60614c75614a5e856148ec565b926149cb614c856149958761490c565b9561493d565b915f6001600160a01b0383166001600160a01b038516105f14614fe957506001915b614cb781856159ea565b936001600160a01b03851615614ccb575050565b9093506001600160a01b0381165f52600360205260405f206001600160a01b0385165f526020526001600160a01b0360405f205416938415614d0b575050565b6001600160a01b039294506060604051838152826020820152606460408201522060ff5f537fe34f199b19b2b4f47f68442619d555527d244f78a3297ea89325f843f87b8b546035527f1f98431c8ad98523631ae4a59f267346ea31f98400000000000000000000000060015260155260555f20915f60355260606040518281528360208201526101f460408201522060ff5f537fe34f199b19b2b4f47f68442619d555527d244f78a3297ea89325f843f87b8b546035527f1f98431c8ad98523631ae4a59f267346ea31f98400000000000000000000000060015260155260555f20915f6035526060604051838152826020820152610bb860408201522060ff5f537fe34f199b19b2b4f47f68442619d555527d244f78a3297ea89325f843f87b8b546035527f1f98431c8ad98523631ae4a59f267346ea31f984000000000000000000000000600152601552606060555f20915f60355260405190848252602082015261271060408201522060ff5f537fe34f199b19b2b4f47f68442619d555527d244f78a3297ea89325f843f87b8b546035527f1f98431c8ad98523631ae4a59f267346ea31f98400000000000000000000000060015260155260555f20925f603552604051614edd8161120a565b5f81525f602082015294803b614fbf575b50803b614f81575b50803b614f43575b50813b614f0d575b5050511691565b81614f17916156f0565b6020830151811115614f06579091508260405192614f348461120a565b16825260208201525f80614f06565b614f4d81836156f0565b60208501518111614f5f575b50614efe565b909193508460405192614f718461120a565b1682526020820152915f80614f59565b614f8b81846156f0565b60208601518111614f9d575b50614ef6565b909194508560405192614faf8461120a565b1682526020820152925f80614f97565b909450614fcc81846156f0565b8660405192614fda8461120a565b1682526020820152935f614eee565b9192614cad565b949291925f915f965f97602a8751145f1461510c5761500e8761442a565b965b6001600160a01b038816156150dd575b508551602a036150c5579086916150368761442a565b965b6001600160a01b03881615615089575b5061506e93879390926150619280156115d157906145a3565b9880156115d157906145a3565b9480516150785750565b6150839192506125d8565b50905090565b61506e94929750926001600160a01b036020806150619496604051928184925191829101835e81015f8152030190205416979294509290615048565b975085906150d561162887611524565b999096615038565b6001600160a01b0391975060208091604051928184925191829101835e81015f8152030190205416955f615020565b5061511961162887611524565b9096615010565b9061513f670de0b6b3a7640000615138818504615c45565b9306615c45565b60128151146151a05761519b60216020926040519384917f3000000000000000000000000000000000000000000000000000000000000000828401528051918291018484015e81015f838201520301601f198101835282611226565b61513f565b6151ac90929192615c8c565b80511561521757600160209283806112b6946040519684889551918291018487015e8401907f2e0000000000000000000000000000000000000000000000000000000000000083830152805192839101602183015e01015f838201520301601f198101835282611226565b5090565b91909182600a0a90615235615230838361456c565b615c45565b918015614576576152469106615c45565b838151146152a6576152a160216020926040519384917f3000000000000000000000000000000000000000000000000000000000000000828401528051918291018484015e81015f838201520301601f198101835282611226565b615246565b6151ac91929350615c8c565b906152bc82611249565b6152c96040519182611226565b828152601f196152d98294611249565b0190602036910137565b906040516152f2606082611226565b6028815260403660208301375f5b6014810361530d57509150565b8060ff8061532e6001809560130360031b1b6001600160a01b03891661456c565b161660f481901b7f0f0000000000000000000000000000000000000000000000000000000000000016906153c79084906153bd907fff000000000000000000000000000000000000000000000000000000000000009060ff60f0610ff0826153958a615d65565b998d6153a78d8b1b809d5f1a92614419565b5360f81c1660041b161691160360f81b16615d65565b5f1a920185614419565b5301615300565b6060916001600160a01b035f921673a0b86991c6218b36c1d19d4a2e9eb0ce3606eb4881146156255773dac17f958d2ee523a2206206994597c13d831ec781146155e357736b175474e89094c44da98b954eedeac495271d0f81146155a15773c02aaa39b223fe8d0a0e5c4f27ead9083c756cc2811461555f57732260fac5e5542a773aa44fbcfedf7c193bc2c599811461551d57737f39c581f595b53c5cb19bd0b3f8da6c935e2ca081146154db5773ae78736cd615f374d3085123a210448e74fc63931461549a57565b9150506040516154ab604082611226565b600481527f5245544800000000000000000000000000000000000000000000000000000000602082015290601290565b509150506040516154ed604082611226565b600681527f5753544554480000000000000000000000000000000000000000000000000000602082015290601290565b5091505060405161552f604082611226565b600481527f5742544300000000000000000000000000000000000000000000000000000000602082015290600890565b50915050604051615571604082611226565b600481527f5745544800000000000000000000000000000000000000000000000000000000602082015290601290565b509150506040516155b3604082611226565b600381527f4441490000000000000000000000000000000000000000000000000000000000602082015290601290565b509150506040516155f5604082611226565b600481527f5553445400000000000000000000000000000000000000000000000000000000602082015290600690565b50915050604051615637604082611226565b600481527f5553444300000000000000000000000000000000000000000000000000000000602082015290600690565b905f805b835182146156eb57603061567f8386614419565b5160f81c1015806156d3575b156147df57600190600a60ff7fffffffffffffffffffffffffffffffffffffffffffffffffffffffffffffffd06156c28689614419565b5160f81c011691020191019061566b565b5060396156e08386614419565b5160f81c111561568b565b925050565b602460106020939284936f70a082310000000000000000000000005f526014525afa5060205190565b67ffffffffffffffff8111610f575760051b60200190565b908151906001915f5b81810361584f5750601f1961576761575185615719565b9461575f6040519687611226565b808652615719565b015f5b81811061582c575050825f915f905f5b8181036157b057506157ad94959650604051916157968361120a565b825260208201526157a7838361495d565b5261495d565b50565b600160fd1b7fff000000000000000000000000000000000000000000000000000000000000006157e0838b614419565b5116146157f0575b60010161577a565b919361582190604051956158038761120a565b8652836020870152600181019561581a828761495d565b528461495d565b5060018201916157e8565b60209060405161583b8161120a565b5f81525f838201528282880101520161576a565b600160fd1b7fff0000000000000000000000000000000000000000000000000000000000000061587f8388614419565b51161461588f575b60010161573a565b600190930192615887565b91906158ad6020820151825190036152b2565b905f5b825181146158fe57807fff000000000000000000000000000000000000000000000000000000000000006158e960019385510188614419565b51165f1a6158f78286614419565b53016158b0565b5090925050565b7f616c6c000000000000000000000000000000000000000000000000000000000061592f82611524565b146159e457805115610d0d57602081017f30000000000000000000000000000000000000000000000000000000000000007fff000000000000000000000000000000000000000000000000000000000000008251161015918261599157505090565b9091505115610d0d577fff000000000000000000000000000000000000000000000000000000000000007f3900000000000000000000000000000000000000000000000000000000000000915116111590565b50600190565b91906001600160a01b035f9316737f39c581f595b53c5cb19bd0b3f8da6c935e2ca0811480615c1f575b615c045773ae78736cd615f374d3085123a210448e74fc6393811480615bde575b615bc35773a0b86991c6218b36c1d19d4a2e9eb0ce3606eb48811480615b9d575b615b825773c02aaa39b223fe8d0a0e5c4f27ead9083c756cc2811480615b5c575b615b4157736b175474e89094c44da98b954eedeac495271d0f811480615b1b575b615b0057732260fac5e5542a773aa44fbcfedf7c193bc2c599149081615ad9575b50615ac057565b734585fe77225b41b697c938b018e2ac67ac5a20c09150565b73c02aaa39b223fe8d0a0e5c4f27ead9083c756cc291506001600160a01b0316145f615ab9565b5073c2e9f25be6257c210d7adf0d4cd6e3e881ba25f8925050565b5073c02aaa39b223fe8d0a0e5c4f27ead9083c756cc26001600160a01b03831614615a98565b507311b815efb8f581194ae79006d24e0d814b7697f6925050565b5073dac17f958d2ee523a2206206994597c13d831ec76001600160a01b03831614615a77565b507388e6a0c2ddd26feeb64f039a2c41296fcb3f5640925050565b5073c02aaa39b223fe8d0a0e5c4f27ead9083c756cc26001600160a01b03831614615a56565b5073553e9c493678d8606d6a5ba284643db2110df823925050565b5073c02aaa39b223fe8d0a0e5c4f27ead9083c756cc26001600160a01b03831614615a35565b5073109830a1aaad605bbf02a9dfa7b0b92ec2fb7daa925050565b5073c02aaa39b223fe8d0a0e5c4f27ead9083c756cc26001600160a01b03831614615a14565b90604051600a5f19608083019460a084016040525f8652945b0193818106603001855304928315615c7a575f19600a91615c5e565b9250608083601f199203019201918252565b90815190815b80151580615d0d575b15615ca8575f1901615c92565b909181146157ad57615cb9816152b2565b905f5b818103615cca575090925050565b807fff00000000000000000000000000000000000000000000000000000000000000615cf860019388614419565b51165f1a615d068286614419565b5301615cbc565b507f30000000000000000000000000000000000000000000000000000000000000007fff00000000000000000000000000000000000000000000000000000000000000615d5d5f19840187614419565b511614615c9b565b7fff000000000000000000000000000000000000000000000000000000000000009060f81c600f16600a811015615da2576030905b0160f81b1690565b605790615d9a56fea2646970667358221220558dd6e1b7de43ef7077f1ea5d8f8b017e66dcbd7a247a8d577c658c4e42410c64736f6c634300081c0033","linkReferences":{}},"methodIdentifiers":{"addresses(string)":"bdfe7d47","cancelOrder(bytes32)":"7489ec23","checkUserOp(string,(address,uint256,bytes,bytes,bytes32,uint256,bytes32,bytes,bytes))":"a35e6511","command(string)":"5fcc4500","command(string[])":"52a13e88","escrow(string,string,string,string,string)":"1db51297","executeOrder(bytes32)":"049b76c4","lock(string,string,string,string,string)":"fdbfc0a6","names(address)":"5cf3d346","order(string,string,string,string,string)":"d315e54f","orderHashes(uint256)":"df69558c","orders(bytes32)":"9c3f1e90","pairs(address,address)":"69454b86","previewCommand(string)":"bfe68676","send(string,string,string)":"5615264d","setName(address,string)":"3121db1c","setPair(address,address,address)":"7bb41012","swap(string,string,string,string,string)":"6662c9e3","translateCommand(bytes)":"04659197","translateExecute(bytes)":"f12a64eb","translateUserOp((address,uint256,bytes,bytes,bytes32,uint256,bytes32,bytes,bytes))":"579a8c4c","whatIsTheAddressOf(string)":"c47d04e2","whatIsTheNameOf(address)":"5a274d62"},"id":88}