{"abi":[{"type":"constructor","inputs":[{"name":"_aaveManager","type":"address","internalType":"address"},{"name":"_aEthAddress","type":"address","internalType":"address"}],"stateMutability":"nonpayable"},{"type":"fallback","stateMutability":"payable"},{"type":"receive","stateMutability":"payable"},{"type":"function","name":"aEth","inputs":[],"outputs":[{"name":"","type":"address","internalType":"contract IAEth"}],"stateMutability":"view"},{"type":"function","name":"aaveManager","inputs":[],"outputs":[{"name":"","type":"address","internalType":"contract IAaveETHManager"}],"stateMutability":"view"},{"type":"function","name":"command","inputs":[{"name":"intent","type":"string","internalType":"string"}],"outputs":[],"stateMutability":"payable"},{"type":"error","name":"InvalidCharacter","inputs":[]},{"type":"error","name":"InvalidSyntax","inputs":[]}],"bytecode":{"object":"0x60c03461013357601f61106238819003918201601f19168301916001600160401b0383118484101761013757808492604094855283398101031261013357610052602061004b8361014b565b920161014b565b6001600160a01b03918216919082156100ee57169081156100a95760805260a052604051610f0290816101608239608051818181610257015281816106330152610914015260a0518181816102bb01526109800152f35b60405162461bcd60e51b815260206004820152601460248201527f496e76616c6964206145544820616464726573730000000000000000000000006044820152606490fd5b60405162461bcd60e51b815260206004820152601760248201527f496e76616c6964206d616e6167657220616464726573730000000000000000006044820152606490fd5b5f80fd5b634e487b7160e01b5f52604160045260245ffd5b51906001600160a01b03821682036101335756fe608060408181526004918236101561001f575b505050361561001d57005b005b5f905f3560e01c908163030581a7146109385750806351ef6593146108ca57635fcc45000361001257602092837ffffffffffffffffffffffffffffffffffffffffffffffffffffffffffffffffc3601126107515767ffffffffffffffff813581811161075157366023820112156107515780830135918211610751576024913683828401011161075157868180856100b85f95610a42565b956100c58b519788610a01565b8287520183860137830101526100db8151610a7c565b935f5b82518110156101d4576100f18184610acb565b517fff00000000000000000000000000000000000000000000000000000000000000908181167f4100000000000000000000000000000000000000000000000000000000000000811015806101aa575b1561019e57508960f891821c019060ff8211610173579060019392911b165b5f1a61016c8289610acb565b53016100de565b866011897f4e487b71000000000000000000000000000000000000000000000000000000005f52525ffd5b90506001929150610160565b507f5a00000000000000000000000000000000000000000000000000000000000000811115610141565b5083878785886101e381610b09565b7f48c73f681176fc7b3f9693986fd7b14581e8d540519e27400e88b8713932be0181036105d2575061021490610c5e565b80515f9182918291825b828110610482575b50505090155f1461046557505060b45b80340361040b578573ffffffffffffffffffffffffffffffffffffffff91827f000000000000000000000000000000000000000000000000000000000000000016803b15610407578290888751809481937ff6326fb30000000000000000000000000000000000000000000000000000000083525af180156103e5576103ef575b50507f00000000000000000000000000000000000000000000000000000000000000001693858351957f70a08231000000000000000000000000000000000000000000000000000000008752308388015285878581845afa9687156103e55782976103a9575b5091604491869493865198899586947fa9059cbb00000000000000000000000000000000000000000000000000000000865233908601528401525af19081156103a0575061036a57505080f35b81813d8311610399575b61037e8183610a01565b810103126103955751801515036103925780f35b80fd5b5080fd5b503d610374565b513d85823e3d90fd5b9193929096508582813d83116103de575b6103c48183610a01565b810103126103da5790519591929091604461031d565b8380fd5b503d6103ba565b85513d84823e3d90fd5b6103f8906109a4565b6104035785876102b7565b8580fd5b8280fd5b5082606494939251937f08c379a00000000000000000000000000000000000000000000000000000000085528401528201527f45746865722073656e74206d69736d61746368207769746820616d6f756e742e6044820152fd5b60128110610474575b50610236565b9050601203600a028661046e565b61048c8183610acb565b517fff0000000000000000000000000000000000000000000000000000000000000081167f3000000000000000000000000000000000000000000000000000000000000000811015806105a8575b1561053957508596600a7fffffffffffffffffffffffffffffffffffffffffffffffffffffffffffffffd09260f89897981c9102010195610523575b6001905b0193929361021e565b9360010193601285111561051657939293610226565b7f2e0000000000000000000000000000000000000000000000000000000000000091509591949514908161059f575b5015610577576001809361051a565b8887517f312a9f56000000000000000000000000000000000000000000000000000000008152fd5b9050158b610568565b507f39000000000000000000000000000000000000000000000000000000000000008111156104da565b919392917f855511cc3694f64379908437d6d64458dc76d02482052bfb8a5b33a72c054c77036108a25761060590610c5e565b5f9080515f915f905f5b838110610755575b505050505073ffffffffffffffffffffffffffffffffffffffff7f00000000000000000000000000000000000000000000000000000000000000001690813b15610751575f91858392855194859384927ff14210a60000000000000000000000000000000000000000000000000000000084528b8401525af1801561074757610734575b508480808047335af13d1561072f573d6106b481610a42565b906106c184519283610a01565b815286843d92013e5b156106d6575050505080f35b517f08c379a0000000000000000000000000000000000000000000000000000000008152928301526012908201527f5769746864726177616c206661696c65642e00000000000000000000000000006044820152606490fd5b6106ca565b61073f9195506109a4565b5f938561069b565b82513d5f823e3d90fd5b5f80fd5b61075f8183610acb565b517fff0000000000000000000000000000000000000000000000000000000000000081167f300000000000000000000000000000000000000000000000000000000000000081101580610878575b1561080957508596600a7fffffffffffffffffffffffffffffffffffffffffffffffffffffffffffffffd09260f89897981c91020101956107f6575b6001905b0193929361060f565b916001019160128311156107e957610617565b7f2e0000000000000000000000000000000000000000000000000000000000000091509591949514908161086f575b501561084757600180936107ed565b8886517f312a9f56000000000000000000000000000000000000000000000000000000008152fd5b9050158b610838565b507f39000000000000000000000000000000000000000000000000000000000000008111156107ad565b8482517f1e3382cb000000000000000000000000000000000000000000000000000000008152fd5b8234610751575f7ffffffffffffffffffffffffffffffffffffffffffffffffffffffffffffffffc360112610751576020905173ffffffffffffffffffffffffffffffffffffffff7f0000000000000000000000000000000000000000000000000000000000000000168152f35b34610751575f7ffffffffffffffffffffffffffffffffffffffffffffffffffffffffffffffffc3601126107515760209073ffffffffffffffffffffffffffffffffffffffff7f0000000000000000000000000000000000000000000000000000000000000000168152f35b67ffffffffffffffff81116109b857604052565b7f4e487b71000000000000000000000000000000000000000000000000000000005f52604160045260245ffd5b6040810190811067ffffffffffffffff8211176109b857604052565b90601f7fffffffffffffffffffffffffffffffffffffffffffffffffffffffffffffffe0910116810190811067ffffffffffffffff8211176109b857604052565b67ffffffffffffffff81116109b857601f017fffffffffffffffffffffffffffffffffffffffffffffffffffffffffffffffe01660200190565b90610a8682610a42565b610a936040519182610a01565b8281527fffffffffffffffffffffffffffffffffffffffffffffffffffffffffffffffe0610ac18294610a42565b0190602036910137565b908151811015610adc570160200190565b7f4e487b71000000000000000000000000000000000000000000000000000000005f52603260045260245ffd5b8051905f5b828110610b3f5760046040517f1e3382cb000000000000000000000000000000000000000000000000000000008152fd5b7fff000000000000000000000000000000000000000000000000000000000000007f200000000000000000000000000000000000000000000000000000000000000081610b8c8486610acb565b511614610b9c5750600101610b0e565b9091809350518211610bec57610bb182610a7c565b925f5b838110610bc957505050506020815191012090565b8083610bd760019385610acb565b51165f1a610be58288610acb565b5301610bb4565b60646040517f08c379a000000000000000000000000000000000000000000000000000000000815260206004820152601360248201527f496e76616c696420736c6963652072616e6765000000000000000000000000006044820152fd5b8051821015610adc5760209160051b010190565b604090815191610c6d836109e5565b6001918284527f200000000000000000000000000000000000000000000000000000000000000091826020809601527fff0000000000000000000000000000000000000000000000000000000000000080931682515f865f5b838110610e8f575001917fffffffffffffffffffffffffffffffffffffffffffffffffffffffffffffffe0610d12610cfd85610eb4565b94610d0a87519687610a01565b808652610eb4565b01885f5b828110610e6e575050505f905f90885f5b85811115610e08575050505050506003815103610ddf578051851015610adc570151938401519184518303928311610dad57610d638493610a7c565b945f935b610d74575b505050505090565b8551841015610dda578051848101809111610dad57859483610d97879387610acb565b51165f1a610da5828a610acb565b530193610d67565b7f4e487b71000000000000000000000000000000000000000000000000000000005f52601160045260245ffd5b610d6c565b600482517f1e3382cb000000000000000000000000000000000000000000000000000000008152fd5b8581148015610e59575b610e1f575b018990610d27565b9293610e4e9150875194610e32866109e5565b8552838c8601528a810194610e478289610c4a565b5286610c4a565b508880830192610e17565b50828a610e66838c610acb565b511614610e12565b8651610e79816109e5565b5f81525f83820152828288010152018990610d16565b8488610e9b838a610acb565b511614610eab575b018790610cc6565b91810191610ea3565b67ffffffffffffffff81116109b85760051b6020019056fea264697066735822122077a04ba5315b9bb7ee1a01b6fefc1f635f29e5a7eb2db77495c3b988c91d5f5e64736f6c63430008180033","linkReferences":{}},"methodIdentifiers":{"aEth()":"030581a7","aaveManager()":"51ef6593","command(string)":"5fcc4500"},"id":68}