{"abi":[{"type":"constructor","inputs":[{"name":"_aaveManager","type":"address","internalType":"address"},{"name":"_aEthAddress","type":"address","internalType":"address"}],"stateMutability":"nonpayable"},{"type":"fallback","stateMutability":"payable"},{"type":"receive","stateMutability":"payable"},{"type":"function","name":"aEth","inputs":[],"outputs":[{"name":"","type":"address","internalType":"contract IAEth"}],"stateMutability":"view"},{"type":"function","name":"aaveManager","inputs":[],"outputs":[{"name":"","type":"address","internalType":"contract IAaveETHManager"}],"stateMutability":"view"},{"type":"function","name":"command","inputs":[{"name":"intent","type":"string","internalType":"string"}],"outputs":[],"stateMutability":"payable"},{"type":"error","name":"InvalidCharacter","inputs":[]},{"type":"error","name":"InvalidSyntax","inputs":[]}],"bytecode":{"object":"0x60c03461013a57601f61107838819003918201601f19168301916001600160401b0383118484101761013e57808492604094855283398101031261013a57610052602061004b83610152565b9201610152565b6001600160a01b039091169081156100f5576001600160a01b03169081156100b05760805260a052604051610f119081610167823960805181818161026a0152818161065b0152610943015260a0518181816102fb01526109af0152f35b60405162461bcd60e51b815260206004820152601460248201527f496e76616c6964206145544820616464726573730000000000000000000000006044820152606490fd5b60405162461bcd60e51b815260206004820152601760248201527f496e76616c6964206d616e6167657220616464726573730000000000000000006044820152606490fd5b5f80fd5b634e487b7160e01b5f52604160045260245ffd5b51906001600160a01b038216820361013a5756fe6080806040526004361015610011575b005b5f905f3560e01c908163030581a7146109675750806351ef6593146108f957635fcc45000361000f5760207ffffffffffffffffffffffffffffffffffffffffffffffffffffffffffffffffc360112610780576004359067ffffffffffffffff8211610780573660238301121561078057816004013567ffffffffffffffff8111610780573660248285010111610780576020818060246100b25f95610a5d565b966100c06040519889610a1c565b8288520183870137840101526100d68251610a97565b915f5b81518110156101ec576100ec8183610ae6565b517fff0000000000000000000000000000000000000000000000000000000000000081167f4100000000000000000000000000000000000000000000000000000000000000811015806101c2575b156101b8575060f81c6020019060ff821161018b577fff0000000000000000000000000000000000000000000000000000000000000060019260f81b165b5f1a6101848287610ae6565b53016100d9565b7f4e487b71000000000000000000000000000000000000000000000000000000005f52601160045260245ffd5b6001929150610178565b507f5a0000000000000000000000000000000000000000000000000000000000000081111561013a565b82846101f781610b24565b7f48c73f681176fc7b3f9693986fd7b14581e8d540519e27400e88b8713932be0181036105fe575061022890610c95565b8051829182918291825b8281106104ae575b50505090155f1461049157505060b45b80340361043357819073ffffffffffffffffffffffffffffffffffffffff7f000000000000000000000000000000000000000000000000000000000000000016803b156104075782906004604051809481937ff6326fb30000000000000000000000000000000000000000000000000000000083525af180156103cf5761041e575b506040517f70a082310000000000000000000000000000000000000000000000000000000081523060048201527f000000000000000000000000000000000000000000000000000000000000000073ffffffffffffffffffffffffffffffffffffffff16602082602481845afa9182156104135783926103da575b50604460209260405194859384927fa9059cbb00000000000000000000000000000000000000000000000000000000845233600485015260248401525af180156103cf57610393575080f35b6020813d6020116103c7575b816103ac60209383610a1c565b810103126103c35751801515036103c05780f35b80fd5b5080fd5b3d915061039f565b6040513d84823e3d90fd5b91506020823d60201161040b575b816103f560209383610a1c565b81010312610407579051906044610347565b5050fd5b3d91506103e8565b6040513d85823e3d90fd5b8161042891610a1c565b6103c05780826102cc565b60646040517f08c379a000000000000000000000000000000000000000000000000000000000815260206004820152602060248201527f45746865722073656e74206d69736d61746368207769746820616d6f756e742e6044820152fd5b601281106104a0575b5061024a565b9050601203600a028261049a565b6104b88183610ae6565b517fff0000000000000000000000000000000000000000000000000000000000000081167f3000000000000000000000000000000000000000000000000000000000000000811015806105d4575b1561056557508596600a7fffffffffffffffffffffffffffffffffffffffffffffffffffffffffffffffd09260f89897981c910201019561054f575b6001905b01939293610232565b936001019360128511156105425793929361023a565b7f2e000000000000000000000000000000000000000000000000000000000000009150959194951490816105cb575b50156105a35760018093610546565b6004867f312a9f56000000000000000000000000000000000000000000000000000000008152fd5b90501587610594565b507f3900000000000000000000000000000000000000000000000000000000000000811115610506565b7f855511cc3694f64379908437d6d64458dc76d02482052bfb8a5b33a72c054c77036108d15761062d90610c95565b5f9080515f915f905f5b838110610784575b505050505073ffffffffffffffffffffffffffffffffffffffff7f00000000000000000000000000000000000000000000000000000000000000001690813b15610780575f916024839260405194859384927ff14210a600000000000000000000000000000000000000000000000000000000845260048401525af1801561077557610762575b508080808047335af13d1561075d573d6106df81610a5d565b906106ed6040519283610a1c565b81528260203d92013e5b156106ff5780f35b60646040517f08c379a000000000000000000000000000000000000000000000000000000000815260206004820152601260248201527f5769746864726177616c206661696c65642e00000000000000000000000000006044820152fd5b6106f7565b61076e91505f90610a1c565b5f816106c6565b6040513d5f823e3d90fd5b5f80fd5b61078e8183610ae6565b517fff0000000000000000000000000000000000000000000000000000000000000081167f3000000000000000000000000000000000000000000000000000000000000000811015806108a7575b1561083857508596600a7fffffffffffffffffffffffffffffffffffffffffffffffffffffffffffffffd09260f89897981c9102010195610825575b6001905b01939293610637565b916001019160128311156108185761063f565b7f2e0000000000000000000000000000000000000000000000000000000000000091509591949514908161089e575b5015610876576001809361081c565b7f312a9f56000000000000000000000000000000000000000000000000000000005f5260045ffd5b90501587610867565b507f39000000000000000000000000000000000000000000000000000000000000008111156107dc565b7f1e3382cb000000000000000000000000000000000000000000000000000000005f5260045ffd5b34610780575f7ffffffffffffffffffffffffffffffffffffffffffffffffffffffffffffffffc36011261078057602060405173ffffffffffffffffffffffffffffffffffffffff7f0000000000000000000000000000000000000000000000000000000000000000168152f35b34610780575f7ffffffffffffffffffffffffffffffffffffffffffffffffffffffffffffffffc3601126107805760209073ffffffffffffffffffffffffffffffffffffffff7f0000000000000000000000000000000000000000000000000000000000000000168152f35b6040810190811067ffffffffffffffff8211176109ef57604052565b7f4e487b71000000000000000000000000000000000000000000000000000000005f52604160045260245ffd5b90601f7fffffffffffffffffffffffffffffffffffffffffffffffffffffffffffffffe0910116810190811067ffffffffffffffff8211176109ef57604052565b67ffffffffffffffff81116109ef57601f017fffffffffffffffffffffffffffffffffffffffffffffffffffffffffffffffe01660200190565b90610aa182610a5d565b610aae6040519182610a1c565b8281527fffffffffffffffffffffffffffffffffffffffffffffffffffffffffffffffe0610adc8294610a5d565b0190602036910137565b908151811015610af7570160200190565b7f4e487b71000000000000000000000000000000000000000000000000000000005f52603260045260245ffd5b908151905f5b828110610b59577f1e3382cb000000000000000000000000000000000000000000000000000000005f5260045ffd5b7f20000000000000000000000000000000000000000000000000000000000000007fff00000000000000000000000000000000000000000000000000000000000000610ba58387610ae6565b511614610bb457600101610b2a565b90915082518111610c2357610bc881610a97565b905f5b818110610be057505080516020909101209150565b807fff00000000000000000000000000000000000000000000000000000000000000610c0e60019388610ae6565b51165f1a610c1c8286610ae6565b5301610bcb565b60646040517f08c379a000000000000000000000000000000000000000000000000000000000815260206004820152601360248201527f496e76616c696420736c6963652072616e6765000000000000000000000000006044820152fd5b8051821015610af75760209160051b010190565b9060408051610ca48282610a1c565b600181527f2000000000000000000000000000000000000000000000000000000000000000602090910181905283515f805b828110610e7c5750600101917fffffffffffffffffffffffffffffffffffffffffffffffffffffffffffffffe0610d24610d0f85610ec3565b94610d1c87519687610a1c565b808652610ec3565b015f5b818110610e5a5750505f905f905f5b84811115610dd357505050505060038151036108d157805160011015610af757015160208101518151810390811161018b57610d7190610a97565b905f5b8251811015610dcc5781519080820180921161018b577fff00000000000000000000000000000000000000000000000000000000000000610db760019388610ae6565b51165f1a610dc58286610ae6565b5301610d74565b5090925050565b8481148015610e25575b610dea575b600101610d36565b9192610e1a90875194610dfc866109d3565b85528360208601526001810194610e138289610c81565b5286610c81565b506001820191610de2565b50817fff00000000000000000000000000000000000000000000000000000000000000610e52838c610ae6565b511614610ddd565b6020908651610e68816109d3565b5f81525f8382015282828801015201610d27565b837fff00000000000000000000000000000000000000000000000000000000000000610ea8838a610ae6565b511614610eb8575b600101610cd6565b600190910190610eb0565b67ffffffffffffffff81116109ef5760051b6020019056fea2646970667358221220135387607afb5a219e7d3fce1a79974705a1d37878a23f945acf630f0f2b94b064736f6c634300081c0033","linkReferences":{}},"methodIdentifiers":{"aEth()":"030581a7","aaveManager()":"51ef6593","command(string)":"5fcc4500"},"id":4}