{"abi":[{"type":"fallback","stateMutability":"payable"},{"type":"receive","stateMutability":"payable"},{"type":"function","name":"commandToTrade","inputs":[{"name":"intent","type":"string","internalType":"string"}],"outputs":[{"name":"amount","type":"uint256","internalType":"uint256"},{"name":"protocol","type":"string","internalType":"string"}],"stateMutability":"nonpayable"},{"type":"function","name":"getAddressFromString","inputs":[{"name":"tokenName","type":"string","internalType":"string"}],"outputs":[{"name":"","type":"address","internalType":"address"}],"stateMutability":"view"},{"type":"function","name":"returnIntentValues","inputs":[{"name":"intent","type":"string","internalType":"string"}],"outputs":[{"name":"","type":"address","internalType":"address"},{"name":"","type":"address","internalType":"address"},{"name":"amount","type":"uint256","internalType":"uint256"},{"name":"protocol","type":"string","internalType":"string"}],"stateMutability":"view"},{"type":"error","name":"InvalidCharacter","inputs":[]},{"type":"error","name":"InvalidSyntax","inputs":[]}],"bytecode":{"object":"0x6080806040523460ef57630eecae8d60e31b81525f600480830182905260249283902080546001600160a01b031990811673c02aaa39b223fe8d0a0e5c4f27ead9083c756cc21790915560408051637573646360e01b81528084018590528590208054831673a0b86991c6218b36c1d19d4a2e9eb0ce3606eb4817905580516264616960e81b8152600381018590526023902080548316736b175474e89094c44da98b954eedeac495271d0f1790558051637762746360e01b8152928301939093529290208054909216732260fac5e5542a773aa44fbcfedf7c193bc2c5991790915551610f5190816100f48239f35b5f80fdfe60806040526004361015610010575b005b5f3560e01c806308e90235146103625780631aeac183146100815763a3c7ed7f0361000e573461007d57602073ffffffffffffffffffffffffffffffffffffffff818061005c36610a1e565b604051928184925191829101835e81015f8152030190205416604051908152f35b5f80fd5b3461007d5761009761009236610a1e565b610bc4565b6100a86100a2610a7b565b82610cbc565b90600482510361033a576100c56100be83610ab6565b5182610e9f565b916101106100dc6100d583610af0565b5184610e9f565b926101096101036100fc6100f76100f1610a7b565b85610cbc565b610b00565b5183610e9f565b93610b10565b5190610e9f565b905f908051905f915f915f5b8281106101ea575b50505090155f1461019357509073ffffffffffffffffffffffffffffffffffffffff61016981610161670de0b6b3a764000061018f960297610b64565b541694610b64565b54169360405194859485526020850152604084015260806060840152608083019061093b565b0390f35b601281959295106101c6575b509073ffffffffffffffffffffffffffffffffffffffff6101698161016161018f95610b64565b601203600a0a9093029273ffffffffffffffffffffffffffffffffffffffff61019f565b6101f48183610bb3565b517fff0000000000000000000000000000000000000000000000000000000000000081167f300000000000000000000000000000000000000000000000000000000000000081101580610310575b156102a157508596600a7fffffffffffffffffffffffffffffffffffffffffffffffffffffffffffffffd09260f89897981c910201019561028b575b6001905b0193929361011c565b9360010193601285111561027e57939293610124565b7f2e00000000000000000000000000000000000000000000000000000000000000915095919495149081610307575b50156102df5760018093610282565b7f312a9f56000000000000000000000000000000000000000000000000000000005f5260045ffd5b905015896102d0565b507f3900000000000000000000000000000000000000000000000000000000000000811115610242565b7f1e3382cb000000000000000000000000000000000000000000000000000000005f5260045ffd5b3461007d5760207ffffffffffffffffffffffffffffffffffffffffffffffffffffffffffffffffc36011261007d5760043567ffffffffffffffff811161007d573660238201121561007d57806004013567ffffffffffffffff811161007d57366024828401011161007d576103e0916100929160243692016109e8565b6103eb6100a2610a7b565b90600482510361033a576104016100be83610ab6565b9061042c6104116100fc85610af0565b916101096104266100fc6100f76100f1610a7b565b95610b10565b925f908051905f915f915f5b828110610813575b50505090155f146107f15750670de0b6b3a764000002915b6040516020810190610484602082885180838b01875e81015f838201520301601f1981018352826109a9565b51902060405160208101907f756e6973776170000000000000000000000000000000000000000000000000008252600781526104c16027826109a9565b519020146104e8575b505061018f604051928392835260406020840152604083019061093b565b5f604051926104f86060856109a9565b6002845273ffffffffffffffffffffffffffffffffffffffff6105338161052b6020880196601f19606001368937610b64565b541692610b64565b54168161053f86610ab6565b5261054985610af0565b52602073ffffffffffffffffffffffffffffffffffffffff61056a86610ab6565b51166064604051809581937f23b872dd0000000000000000000000000000000000000000000000000000000083523360048401523060248401528a60448401525af1908115610742575f926020926107d6575b506044604051809481937f095ea7b3000000000000000000000000000000000000000000000000000000008352737a250d5630b4cf539739df2c5dacb4c659f2488d60048401528960248401525af18015610742576107a9575b50610bb8420180421161077c5790916040519283917f38ed173900000000000000000000000000000000000000000000000000000000835260a48301908660048501525f602485015260a060448501525180915260c4830191905f5b81811061074d5750505081905f933360648401526084830152038183737a250d5630b4cf539739df2c5dacb4c659f2488d5af18015610742576106b7575b806104ca565b3d805f833e6106c681836109a9565b81019060208183031261007d5780519067ffffffffffffffff821161007d570181601f8201121561007d5780519060208061070084610b34565b61070d60405191826109a9565b848152019260051b82010192831161007d57602001905b8282106107325750506106b1565b8151815260209182019101610724565b6040513d5f823e3d90fd5b825173ffffffffffffffffffffffffffffffffffffffff16845286945060209384019390920191600101610673565b7f4e487b71000000000000000000000000000000000000000000000000000000005f52601160045260245ffd5b6107ca9060203d6020116107cf575b6107c281836109a9565b810190610b4c565b610617565b503d6107b8565b6107ec90833d85116107cf576107c281836109a9565b6105bd565b60128194929410610803575b50610458565b601203600a0a90920291846107fd565b61081d8183610bb3565b517fff0000000000000000000000000000000000000000000000000000000000000081167f300000000000000000000000000000000000000000000000000000000000000081101580610911575b156108ca57508596600a7fffffffffffffffffffffffffffffffffffffffffffffffffffffffffffffffd09260f89897981c91020101956108b4575b6001905b01939293610438565b936001019360128511156108a757939293610440565b7f2e00000000000000000000000000000000000000000000000000000000000000915095919495149081610908575b50156102df57600180936108ab565b905015896108f9565b507f390000000000000000000000000000000000000000000000000000000000000081111561086b565b90601f19601f602080948051918291828752018686015e5f8582860101520116010190565b6040810190811067ffffffffffffffff82111761097c57604052565b7f4e487b71000000000000000000000000000000000000000000000000000000005f52604160045260245ffd5b90601f601f19910116810190811067ffffffffffffffff82111761097c57604052565b67ffffffffffffffff811161097c57601f01601f191660200190565b9291926109f4826109cc565b91610a0260405193846109a9565b82948184528183011161007d578281602093845f960137010152565b60207ffffffffffffffffffffffffffffffffffffffffffffffffffffffffffffffffc82011261007d576004359067ffffffffffffffff821161007d578060238301121561007d57816024610a78936004013591016109e8565b90565b60405190610a8a6040836109a9565b600182527f20000000000000000000000000000000000000000000000000000000000000006020830152565b805115610ac35760200190565b7f4e487b71000000000000000000000000000000000000000000000000000000005f52603260045260245ffd5b805160011015610ac35760400190565b805160021015610ac35760600190565b805160031015610ac35760800190565b8051821015610ac35760209160051b010190565b67ffffffffffffffff811161097c5760051b60200190565b9081602091031261007d5751801515810361007d5790565b60208091604051928184925191829101835e81015f81520301902090565b90610b8c826109cc565b610b9960405191826109a9565b828152601f19610ba982946109cc565b0190602036910137565b908151811015610ac3570160200190565b90610bcf8251610b82565b915f5b8151811015610cb857610be58183610bb3565b517fff0000000000000000000000000000000000000000000000000000000000000081167f410000000000000000000000000000000000000000000000000000000000000081101580610c8e575b15610c84575060f81c6020019060ff821161077c577fff0000000000000000000000000000000000000000000000000000000000000060019260f81b165b5f1a610c7d8287610bb3565b5301610bd2565b6001929150610c71565b507f5a00000000000000000000000000000000000000000000000000000000000000811115610c33565b5050565b91906001815103610e4157805115610ac357602001518251907fff00000000000000000000000000000000000000000000000000000000000000165f805b838110610dfa575060010193601f19610d2b610d1587610b34565b96610d2360405198896109a9565b808852610b34565b015f5b818110610dd7575050845f915f935f5b86811115610d4f5750505050505050565b8681148015610da2575b610d66575b600101610d3e565b9493610d979060405195610d7987610960565b86528660208701526001810195610d908287610b20565b5284610b20565b506001850194610d5e565b50817fff00000000000000000000000000000000000000000000000000000000000000610dcf8386610bb3565b511614610d59565b602090604051610de681610960565b5f81525f8382015282828a01015201610d2e565b827fff00000000000000000000000000000000000000000000000000000000000000610e268389610bb3565b511614610e36575b600101610cfa565b600190910190610e2e565b60646040517f08c379a000000000000000000000000000000000000000000000000000000000815260206004820152601f60248201527f44656c696d69746572206d757374206265206f6e6520636861726163746572006044820152fd5b919060208101518151810390811161077c57610eba90610b82565b905f5b8251811015610f155781519080820180921161077c577fff00000000000000000000000000000000000000000000000000000000000000610f0060019388610bb3565b51165f1a610f0e8286610bb3565b5301610ebd565b5050915056fea26469706673582212204978914b7c617b418b61ce2659c8ed3e36df35b90742285e1533499a05a8b99a64736f6c634300081c0033","linkReferences":{}},"methodIdentifiers":{"commandToTrade(string)":"08e90235","getAddressFromString(string)":"a3c7ed7f","returnIntentValues(string)":"1aeac183"},"id":27}