{"abi":[{"type":"fallback","stateMutability":"payable"},{"type":"receive","stateMutability":"payable"},{"type":"function","name":"commandToTrade","inputs":[{"name":"intent","type":"string","internalType":"string"}],"outputs":[{"name":"amount","type":"uint256","internalType":"uint256"},{"name":"protocol","type":"string","internalType":"string"}],"stateMutability":"nonpayable"},{"type":"function","name":"getAddressFromString","inputs":[{"name":"tokenName","type":"string","internalType":"string"}],"outputs":[{"name":"","type":"address","internalType":"address"}],"stateMutability":"view"},{"type":"function","name":"returnIntentValues","inputs":[{"name":"intent","type":"string","internalType":"string"}],"outputs":[{"name":"","type":"address","internalType":"address"},{"name":"","type":"address","internalType":"address"},{"name":"amount","type":"uint256","internalType":"uint256"},{"name":"protocol","type":"string","internalType":"string"}],"stateMutability":"view"},{"type":"error","name":"InvalidCharacter","inputs":[]},{"type":"error","name":"InvalidSyntax","inputs":[]}],"bytecode":{"object":"0x608080604052346100e75780630eecae8d60e31b602492525f60048201522060018060a01b03199073c02aaa39b223fe8d0a0e5c4f27ead9083c756cc2828254161790556024604051637573646360e01b81525f60048201522073a0b86991c6218b36c1d19d4a2e9eb0ce3606eb488282541617905560236040516264616960e81b81525f600382015220736b175474e89094c44da98b954eedeac495271d0f82825416179055732260fac5e5542a773aa44fbcfedf7c193bc2c5996024604051637762746360e01b81525f60048201522091825416179055604051610de790816100ec8239f35b5f80fdfe60406080815260048036101561001c575b5050361561001a57005b005b5f3560e01c90816308e90235146101b35781631aeac1831461009b575063a3c7ed7f146100495780610010565b346100975760209073ffffffffffffffffffffffffffffffffffffffff6100858361007336610746565b81855193828580945193849201610642565b81015f81520301902054169051908152f35b5f80fd5b905034610097576100b36100ae36610746565b6108f1565b906100c56100bf6107a3565b836109f7565b908082510361018c5750806100e66100df610188936107dc565b5184610ba2565b61015d61016561013f6101396101056100fe87610816565b5189610ba2565b9761013261012c61012561012061011a6107a3565b856109f7565b610826565b5183610ba2565b97610836565b5190610ba2565b94610c1e565b9273ffffffffffffffffffffffffffffffffffffffff92839161088a565b54169561088a565b541694805195869586526020860152840152608060608401526080830190610663565b0390f35b83517f1e3382cb000000000000000000000000000000000000000000000000000000008152fd5b90503461009757602090817ffffffffffffffffffffffffffffffffffffffffffffffffffffffffffffffffc3601126100975780359267ffffffffffffffff908185116100975736602386011215610097578483013594828611610097576024953687828401011161009757610230916100ae9188369201610710565b9161024261023c6107a3565b846109f7565b928484510361061a5761025e610257856107dc565b5182610ba2565b9061029261028c6102716100df88610816565b9261013261028661012561012061011a6107a3565b98610836565b95610c1e565b958451888101906102bc8a82816102af8c87815193849201610642565b81010380845201826106d1565b5190208551898101907f756e6973776170000000000000000000000000000000000000000000000000008252600781526102f581610688565b51902014610316575b84518781528089018690528061018881880189610663565b84519160608301838110868211176105ef579061035c91875260028452898401948736873761036473ffffffffffffffffffffffffffffffffffffffff8094819361088a565b54169261088a565b541681610370866107dc565b5261037a85610816565b528a8a8a60648561038a896107dc565b5116935f8c5195869485937f23b872dd000000000000000000000000000000000000000000000000000000008552338c860152309085015260448401525af180156105c8578c96959493925f928d926105d2575b5060448c8b5194859384927f095ea7b3000000000000000000000000000000000000000000000000000000008452737a250d5630b4cf539739df2c5dacb4c659f2488d9c8d8b8601528401525af180156105c85761059b575b50610bb842019283421161057057915f9a9b94939288519b8c967f38ed17390000000000000000000000000000000000000000000000000000000088528c60a489019489015287015260a060448701525180915260c4850193915f905b8d8383106105535750505050505f838195938193336064840152608483015203925af18015610549576104cb575b808087966102fe565b3d805f873e6104da81876106d1565b8501948681870312610097578051918211610097570184601f8201121561009757805186806105088361085a565b610514865191826106d1565b838152019160051b8301019586116100975786809201905b86821061053a5750506104c2565b8151815290820190820161052c565b82513d5f823e3d90fd5b8451821687528d9750958601959093019260019190910190610494565b8b6011847f4e487b71000000000000000000000000000000000000000000000000000000005f52525ffd5b6105ba908b3d8d116105c1575b6105b281836106d1565b810190610872565b505f610437565b503d6105a8565b88513d5f823e3d90fd5b6105e890833d85116105c1576105b281836106d1565b505f6103de565b8a6041847f4e487b71000000000000000000000000000000000000000000000000000000005f52525ffd5b8483517f1e3382cb000000000000000000000000000000000000000000000000000000008152fd5b5f5b8381106106535750505f910152565b8181015183820152602001610644565b90601f19601f60209361068181518092818752878088019101610642565b0116010190565b6040810190811067ffffffffffffffff8211176106a457604052565b7f4e487b71000000000000000000000000000000000000000000000000000000005f52604160045260245ffd5b90601f601f19910116810190811067ffffffffffffffff8211176106a457604052565b67ffffffffffffffff81116106a457601f01601f191660200190565b92919261071c826106f4565b9161072a60405193846106d1565b829481845281830111610097578281602093845f960137010152565b60207ffffffffffffffffffffffffffffffffffffffffffffffffffffffffffffffffc820112610097576004359067ffffffffffffffff82116100975780602383011215610097578160246107a093600401359101610710565b90565b604051906107b082610688565b600182527f20000000000000000000000000000000000000000000000000000000000000006020830152565b8051156107e95760200190565b7f4e487b71000000000000000000000000000000000000000000000000000000005f52603260045260245ffd5b8051600110156107e95760400190565b8051600210156107e95760600190565b8051600310156107e95760800190565b80518210156107e95760209160051b010190565b67ffffffffffffffff81116106a45760051b60200190565b90816020910312610097575180151581036100975790565b60206108a3918160405193828580945193849201610642565b81015f81520301902090565b906108b9826106f4565b6108c660405191826106d1565b828152601f196108d682946106f4565b0190602036910137565b9081518110156107e9570160200190565b906108fc82516108af565b915f5b81518110156109f35761091281836108e0565b51907fff000000000000000000000000000000000000000000000000000000000000008083167f4100000000000000000000000000000000000000000000000000000000000000811015806109c9575b156109be5750602060f893841c0160ff8111610991576001931b165b5f1a61098a82876108e0565b53016108ff565b7f4e487b71000000000000000000000000000000000000000000000000000000005f52601160045260245ffd5b90506001925061097e565b507f5a00000000000000000000000000000000000000000000000000000000000000811115610962565b5050565b919060019081815103610b44578051156107e9577fff0000000000000000000000000000000000000000000000000000000000000080602080930151168551925f855f5b868110610b1f57500192610a4e8461085a565b91601f19610a6d604096610a6560405196876106d1565b80865261085a565b01815f5b828110610afe5750505082985f945f935f5b89811115610a98575050505050505050505050565b808a8c92148015610ae9575b610aaf575b01610a83565b9597610ade9150895198610ac28a610688565b895286868a01528b810198610ad7828a610846565b5287610846565b508980860195610aa9565b508383610af683886108e0565b511614610aa4565b8751610b0981610688565b5f81525f83820152828288010152018290610a71565b8486610b2b838d6108e0565b511614610b3b575b018690610a3b565b91810191610b33565b60646040517f08c379a000000000000000000000000000000000000000000000000000000000815260206004820152601f60248201527f44656c696d69746572206d757374206265206f6e6520636861726163746572006044820152fd5b919060208101518151810390811161099157610bbd906108af565b905f5b8251811015610c1857815190808201809211610991577fff00000000000000000000000000000000000000000000000000000000000000610c03600193886108e0565b51165f1a610c1182866108e0565b5301610bc0565b50509150565b80515f9182918291825b828110610c5f575b50505090155f14610c495750670de0b6b3a76400000290565b60128110610c55575090565b601203600a0a0290565b610c6981836108e0565b517fff0000000000000000000000000000000000000000000000000000000000000081167f300000000000000000000000000000000000000000000000000000000000000081101580610d87575b15610d1657508596600a7fffffffffffffffffffffffffffffffffffffffffffffffffffffffffffffffd09260f89897981c9102010195610d00575b6001905b01939293610c28565b93600101936012851115610cf357939293610c30565b7f2e00000000000000000000000000000000000000000000000000000000000000915095919495149081610d7e575b5015610d545760018093610cf7565b60046040517f312a9f56000000000000000000000000000000000000000000000000000000008152fd5b9050155f610d45565b507f3900000000000000000000000000000000000000000000000000000000000000811115610cb756fea2646970667358221220e9b401d87ca64058c461715de1a357244a9ac3b7c49bd8f5e7274c9cba330fbd64736f6c63430008180033","linkReferences":{}},"methodIdentifiers":{"commandToTrade(string)":"08e90235","getAddressFromString(string)":"a3c7ed7f","returnIntentValues(string)":"1aeac183"},"id":76}