{"abi":[{"type":"constructor","inputs":[],"stateMutability":"nonpayable"},{"type":"fallback","stateMutability":"payable"},{"type":"receive","stateMutability":"payable"},{"type":"function","name":"cEthAddress","inputs":[],"outputs":[{"name":"","type":"address","internalType":"address"}],"stateMutability":"view"},{"type":"function","name":"depositETH","inputs":[],"outputs":[],"stateMutability":"payable"},{"type":"function","name":"getCETHBalance","inputs":[{"name":"user","type":"address","internalType":"address"}],"outputs":[{"name":"","type":"uint256","internalType":"uint256"}],"stateMutability":"view"},{"type":"function","name":"getExchangeRate","inputs":[],"outputs":[{"name":"","type":"uint256","internalType":"uint256"}],"stateMutability":"nonpayable"},{"type":"function","name":"withdrawETH","inputs":[{"name":"cEthAmount","type":"uint256","internalType":"uint256"}],"outputs":[],"stateMutability":"nonpayable"}],"bytecode":{"object":"0x60c0806040523461006c57734ddc2d193948926d02f9b1fe9e1daa0718270ed5608052734ddc2d193948926d02f9b1fe9e1daa0718270ed560a0526107e19081610071823960805181610696015260a0518181816078015281816102a8015281816105fd01526107310152f35b5f80fdfe6080806040526004361015610011575b005b5f905f3560e01c90816311694608146106ba575080632ed58e151461066a578063e6aa216c146105a9578063f14210a6146102775763f6326fb30361000f575f6003193601126101e45734156102195773ffffffffffffffffffffffffffffffffffffffff7f00000000000000000000000000000000000000000000000000000000000000001690813b156101e4576040517f1249c58b0000000000000000000000000000000000000000000000000000000081525f8160048134875af1801561020e576101fb575b5080916040517f70a08231000000000000000000000000000000000000000000000000000000008152306004820152602081602481855afa9081156101f05783916101b4575b5090604460209260405194859384927fa9059cbb00000000000000000000000000000000000000000000000000000000845233600485015260248401525af180156101a95761016d575080f35b6020813d6020116101a1575b816101866020938361076a565b8101031261019d57518015150361019a5780f35b80fd5b5080fd5b3d9150610179565b6040513d84823e3d90fd5b919250506020813d6020116101e8575b816101d16020938361076a565b810103126101e457518291906044610120565b5f80fd5b3d91506101c4565b6040513d85823e3d90fd5b61020791505f9061076a565b5f5f6100da565b6040513d5f823e3d90fd5b60646040517f08c379a000000000000000000000000000000000000000000000000000000000815260206004820152600d60248201527f4d7573742073656e6420455448000000000000000000000000000000000000006044820152fd5b346101e45760206003193601126101e457600435801561054b5773ffffffffffffffffffffffffffffffffffffffff7f0000000000000000000000000000000000000000000000000000000000000000166040517fdb006a750000000000000000000000000000000000000000000000000000000081528260048201526020816024815f865af190811561020e575f91610519575b506104bb5760205f916004604051809481937fbd6d894d0000000000000000000000000000000000000000000000000000000083525af190811561020e575f91610489575b508082029182040361045c575f8080670de0b6b3a7640000819404335af13d15610457573d67ffffffffffffffff811161042a57604051906103bb60207fffffffffffffffffffffffffffffffffffffffffffffffffffffffffffffffe0601f840116018361076a565b81525f60203d92013e5b156103cc57005b60646040517f08c379a000000000000000000000000000000000000000000000000000000000815260206004820152601360248201527f455448207472616e73666572206661696c6564000000000000000000000000006044820152fd5b7f4e487b71000000000000000000000000000000000000000000000000000000005f52604160045260245ffd5b6103c5565b7f4e487b71000000000000000000000000000000000000000000000000000000005f52601160045260245ffd5b90506020813d6020116104b3575b816104a46020938361076a565b810103126101e4575182610351565b3d9150610497565b60646040517f08c379a000000000000000000000000000000000000000000000000000000000815260206004820152601660248201527f436f6d706f756e642072656465656d206661696c6564000000000000000000006044820152fd5b90506020813d602011610543575b816105346020938361076a565b810103126101e457518361030c565b3d9150610527565b60646040517f08c379a000000000000000000000000000000000000000000000000000000000815260206004820152601360248201527f496e76616c6964206345544820616d6f756e74000000000000000000000000006044820152fd5b346101e4575f6003193601126101e4576040517fbd6d894d0000000000000000000000000000000000000000000000000000000081526020816004815f73ffffffffffffffffffffffffffffffffffffffff7f0000000000000000000000000000000000000000000000000000000000000000165af1801561020e575f90610637575b602090604051908152f35b506020813d602011610662575b816106516020938361076a565b810103126101e4576020905161062c565b3d9150610644565b346101e4575f6003193601126101e457602060405173ffffffffffffffffffffffffffffffffffffffff7f0000000000000000000000000000000000000000000000000000000000000000168152f35b346101e45760206003193601126101e45760043573ffffffffffffffffffffffffffffffffffffffff81168091036101e4577f70a08231000000000000000000000000000000000000000000000000000000008252600482015260208160248173ffffffffffffffffffffffffffffffffffffffff7f0000000000000000000000000000000000000000000000000000000000000000165afa801561020e575f9061063757602090604051908152f35b90601f7fffffffffffffffffffffffffffffffffffffffffffffffffffffffffffffffe0910116810190811067ffffffffffffffff82111761042a5760405256fea26469706673582212206c1322c1b21d6cf3b763245ef7ed87ac6407a38217aa81bcdd6b409aeb1a47c764736f6c634300081c0033","linkReferences":{}},"methodIdentifiers":{"cEthAddress()":"2ed58e15","depositETH()":"f6326fb3","getCETHBalance(address)":"11694608","getExchangeRate()":"e6aa216c","withdrawETH(uint256)":"f14210a6"},"id":70}