{"abi":[{"type":"constructor","inputs":[],"stateMutability":"nonpayable"},{"type":"function","name":"getAddressFromString","inputs":[{"name":"tokenName","type":"string","internalType":"string"}],"outputs":[{"name":"","type":"address","internalType":"address"}],"stateMutability":"view"}],"bytecode":{"object":"0x6080806040523460ef57630eecae8d60e31b81525f600480830182905260249283902080546001600160a01b031990811673c02aaa39b223fe8d0a0e5c4f27ead9083c756cc21790915560408051637573646360e01b81528084018590528590208054831673a0b86991c6218b36c1d19d4a2e9eb0ce3606eb4817905580516264616960e81b8152600381018590526023902080548316736b175474e89094c44da98b954eedeac495271d0f1790558051637762746360e01b8152928301939093529290208054909216732260fac5e5542a773aa44fbcfedf7c193bc2c599179091555161018590816100f48239f35b5f80fdfe6080600436101561000e575f80fd5b5f3560e01c63a3c7ed7f14610021575f80fd5b3461011e5760207ffffffffffffffffffffffffffffffffffffffffffffffffffffffffffffffffc36011261011e5760043567ffffffffffffffff811161011e573660238201121561011e5780600401359067ffffffffffffffff8211610122577fffffffffffffffffffffffffffffffffffffffffffffffffffffffffffffffe0603f81601f8501160116830183811067ffffffffffffffff821117610122576040528183526020830190366024848301011161011e576020935f858573ffffffffffffffffffffffffffffffffffffffff966024839601873783010152604051928391518091835e81015f8152030190205416604051908152f35b5f80fd5b7f4e487b71000000000000000000000000000000000000000000000000000000005f52604160045260245ffdfea2646970667358221220e0d47a0dc06bfd7b8b389a1b7eb0454acd38fb213db084a4994aae60e1773e5664736f6c634300081c0033","linkReferences":{}},"methodIdentifiers":{"getAddressFromString(string)":"a3c7ed7f"},"id":31}