{"abi":[{"type":"constructor","inputs":[],"stateMutability":"nonpayable"},{"type":"function","name":"getAddressFromString","inputs":[{"name":"tokenName","type":"string","internalType":"string"}],"outputs":[{"name":"","type":"address","internalType":"address"}],"stateMutability":"view"}],"bytecode":{"object":"0x608080604052346100f95780630eecae8d60e31b602492525f60048201522073c02aaa39b223fe8d0a0e5c4f27ead9083c756cc260018060a01b03198254161790556024604051637573646360e01b81525f60048201522073a0b86991c6218b36c1d19d4a2e9eb0ce3606eb4860018060a01b031982541617905560236040516264616960e81b81525f600382015220736b175474e89094c44da98b954eedeac495271d0f60018060a01b031982541617905560236040516262746360e81b81525f600382015220732260fac5e5542a773aa44fbcfedf7c193bc2c59960018060a01b031982541617905560405161018590816100fe8239f35b5f80fdfe6080600436101561000e575f80fd5b5f3560e01c63a3c7ed7f14610021575f80fd5b3461011e5760207ffffffffffffffffffffffffffffffffffffffffffffffffffffffffffffffffc36011261011e5760043567ffffffffffffffff811161011e573660238201121561011e5780600401359067ffffffffffffffff8211610122577fffffffffffffffffffffffffffffffffffffffffffffffffffffffffffffffe0603f81601f8501160116830183811067ffffffffffffffff821117610122576040528183526020830190366024848301011161011e576020935f858573ffffffffffffffffffffffffffffffffffffffff966024839601873783010152604051928391518091835e81015f8152030190205416604051908152f35b5f80fd5b7f4e487b71000000000000000000000000000000000000000000000000000000005f52604160045260245ffdfea26469706673582212201d4628a03487c3e24d636bccf6aaae2ac496ae787547bcea08e67d2cac1f031964736f6c634300081c0033","linkReferences":{}},"methodIdentifiers":{"getAddressFromString(string)":"a3c7ed7f"},"id":31}